:042000003AEF10F0B3
:082006000D605182E5EF59F075
:102018005180D8CF07F0E8CF08F0E0CF09F0E1CF42
:102028000AF0E2CF0BF0D9CF0CF0DACF0DF00E0E9C
:10203800026E7DEC5CF00009D8B408D0400E016E49
:10204800040E026E0EC003F07DEC55F00DC0DAFFF1
:102058000CC0D9FF0BC0E2FF0AC0E1FF09C0E0FFD6
:1020680008C0E8FF07C0D8FF5190100001EF3FF00B
:10207800000000803F000020410000C84200007AB4
:102088004400401C460050C34700247449809618F9
:102098004B20BCBE4C286B6E4EF9021550EC78AD47
:1020A80060CAF249710000803FCDCCCC3D0AD723ED
:1020B8003C6F12833A17B7D138ACC52737BD37867E
:1020C8003595BFD63377CC2B325F708930FFE6DB8E
:1020D8002E08E53C1E6042A20DC0120000802500BB
:1020E8000040380000004B00000096000000E100AE
:1020F8000087221922C604640F1E3CC8D62101415C
:1021080054435A00000000000000000541544344B5
:102118000000000000000000064154435100000088
:102128000000000000074154434800000000000080
:102138000000084154434F0000000000000000095F
:102148004154434D4F44454C000000000241544364
:1021580056455200000000000003415443525354B6
:1021680000000000000104415443424C5253540003
:102178000000010A415443534D4F44454C000002AE
:102188000B415443435A522500000000010C4154AE
:10219800434D4F444944000000020D4154434D4F04
:1021A800444252000000020E4154434D4F445357DD
:1021B800000000020F4154434D4F44544F000000AB
:1021C8000210415443424C44544D0000000009029F
:1021D8004300020100C032090400000102020100AC
:1021E8000524001001042402020524060001052428
:1021F8000100010705810308000209040100020A21
:1022080000000007050202400000070582024000A6
:10221800003403440065006B0069007300740020FB
:102228000043006F002E002C0020004C0074006456
:10223800002E000000000000000000000000000068
:102248000000000000010000000A00000064000017
:1022580000E803000010270000A086010040420F9C
:10226800008096980000E1F50500CA9A3B1201002B
:102278000202000008D8040A00000101020001045B
:10228800030904524E3430302D50475F3176300008
:1022980041707220313720323032340031363A30D2
:1022A800393A3130004E48332D31303030004E4805
:1022B800332D313030004832532D353000252E3241
:0B22C80066002D2D2D2D00454F00005D
:1022D400000EA76F000EA66F990EA56FABD3250E47
:1022E400BA19D8B40BD095C0D9FF96C0DAFFBAC0DA
:1022F400DFFF954B962BA64BA72B9CD3000EA96F03
:10230400000EA86F97C0F6FF98C0F7FF0800F550BD
:102314002E0AD8A438D0A98D974B982B000EB56FF0
:10232400000EB46F25D0B4C00FF0B5C010F0000E8D
:10233400126E0A0E116E4AEC5BF00FC0B4F010C0BE
:10234400B5F0D00E00019D6FFF0E9E6F97C0F6FF93
:1023540098C0F7FF0800F5509F6FA06B9D519F2711
:102364009E51A0239F51B427A051B523974B982B7E
:1023740097C0F6FF98C0F7FF0800F55041EC5CF0F9
:10238400D8A009D0D0D7000EB56F000EB46FA989BC
:1023940002D0A98512D097C0F6FF98C0F7FF0001BC
:1023A400974B982B0800F5CFBAF0BA51000AD8B46D
:1023B4004DD3660AD8B4EDD73DD3070EA915D8B4CA
:1023C40008D3A9A904D0000EB56F060EB46FA551A9
:1023D400D96EDA6ADECFB6F0DECFB7F0DECFB8F072
:1023E400DECFB9F0040EA527B9AF14D0B6C00FF0F4
:1023F400B7C010F0B8C011F0B9C012F0A0EC59F099
:102404000FC0B6F010C0B7F011C0B8F012C0B9F0E8
:10241400030EA813000EAF6F000EAE6FB6C089F0A6
:10242400B7C08AF0B8C08BF0B9C08CF0000E8D6FC5
:10243400000E8E6F000E8F6F000E906FC1EC4DF08A
:10244400D8B082D0B835B935820FAE6FAF6BFF0EFE
:10245400AF23AE07D8A0AF07AEC00FF0AFC010F0E7
:10246400000E126E030E116E4AEC5BF00FC0AEF05C
:1024740010C0AFF0AEC015F0AFC016F0000E186E6D
:102484000A0E176E4AEC4EF015C0AEF016C0AFF04F
:102494000001AFAF03D0AE07D8A0AF07AE5100081C
:1024A40041EC1FF081C0B0F082C0B1F083C0B2F043
:1024B40084C0B3F0B0C068F0B1C069F0B2C06AF0D3
:1024C400B3C06BF0B6C06CF0B7C06DF0B8C06EF0BE
:1024D400B9C06FF0A3EC24F068C0B0F069C0B1F0EB
:1024E4006AC0B2F06BC0B3F0B0C00FF0B1C010F06E
:1024F400B2C011F0B3C012F0000E136E000E146ED1
:10250400800E156E3F0E166EBAEC45F0D8B005D0AD
:102514000001AE07D8A0AF0717D0B0C00FF0B1C00C
:1025240010F0B2C011F0B3C012F0000E136E000E22
:10253400146E200E156E410E166EBAEC45F0D8A03E
:1025440003D00001AE4BAF2B0001B5BF06D0B5518F
:1025540021E10D0EB45DD8B01DD0B6C036F0B7C0C1
:1025640037F0B8C038F0B9C039F0B451B0EC32F03B
:1025740081C03AF082C03BF083C03CF084C03DF09F
:102584003AEC26F036C0B6F037C0B7F038C0B8F031
:1025940039C0B9F0AFBF06D0AF512FE10A0EAE5D1E
:1025A400D8B02BD0B6C089F0B7C08AF0B8C08BF0D1
:1025B400B9C08CF0000E8D6F000E8E6F000E8F6F01
:1025C400000E906FC1EC4DF0D8B061D0B6C08AF067
:1025D400B7C08BF0B8C08CF0B9C08DF0D8EC48F01F
:1025E4008A518B118C118D11D8B4AFBF50D0AF511B
:1025F40004E1020EAE5DD8A04AD0B0C00FF0B1C065
:1026040010F0B2C011F0B3C012F05F0E136E700E72
:10261400146E890E156E400E166EBAEC45F0D8B0E5
:1026240003D00001F70E02D00001F80EAE27FF0E12
:10263400AF23AE5141EC1FF081C0B0F082C0B1F0C5
:1026440083C0B2F084C0B3F0B6C00FF0B7C010F0CE
:10265400B8C011F0B9C012F0B0C013F0B1C014F09A
:10266400B2C015F0B3C016F01BEC43F00FC0AAF0D3
:1026740010C0ABF011C0ACF012C0ADF0000EB66FDC
:10268400000EB76F000EB86F000EB96F3BD0B6C026
:102694008AF0B7C08BF0B8C08CF0B9C08DF0D8EC1C
:1026A40048F08AC0AAF08BC0ABF08CC0ACF08DC0EF
:1026B400ADF0B6C081F0B7C082F0B8C083F0B9C045
:1026C40084F0AAC00FF0ABC010F0ACC011F0ADC0E4
:1026D40012F0000E2BEC3DF00FC085F010C086F018
:1026E40011C087F012C088F0EEEC55F081C0B6F04E
:1026F40082C0B7F083C0B8F084C0B9F0000EAF6FE9
:10270400000EAE6F010EBA6FBA51040D4D0EF324D4
:10271400F66E220EF420F76E0900F550AA5D09004A
:10272400F550AB590900F550AC590900F550AD59B5
:10273400D8A005D0BA2B0A0EBA19D8A4E5D7A8C0D8
:102744009DF0030E9D17D8B453D095C0D9FF96C001
:10275400DAFF2D0EDF6E954B962BA64BA72B48D098
:10276400AAC00FF0ABC010F0ACC011F0ADC012F0B5
:10277400BA51040D4D0EF324F66E220EF420F76EBA
:102784000900F5CF13F00900F5CF14F00900F5CFD7
:1027940015F00A00F5CF16F0CEEC4EF00FC0B0F0F5
:1027A40010C0B1F011C0B2F012C0B3F0B0C00FF05D
:1027B400B1C010F0B2C011F0B3C012F00A0E136E23
:1027C400000E146E000E156E000E166EA6EC52F07E
:1027D4000FC0B0F010C0B1F011C0B2F012C0B3F02D
:1027E4000001B051300F95C0D9FF96C0DAFFB2D7BF
:1027F400BA07BA29D8B40ED0B3D795C0D9FF96C0BA
:10280400DAFF300EDF6E954B962BA64BA72BAE0747
:10281400D8A0AF07AFBF05D0AF51EFE1AE05D8B038
:10282400ECD7B5BF09D0B55104E1090EB45DD8A009
:1028340003D0080EBA6F02D0B4C0BAF0BA51B45F74
:10284400000EB55BBA51D8B40AD095C0D9FF96C072
:10285400DAFF2E0EDF6E954B962BA64BA72BBA51A3
:1028640041EC1FF081C0A1F082C0A2F083C0A3F0AC
:1028740084C0A4F0B6C06CF0B7C06DF0B8C06EF000
:10288400B9C06FF0A1C068F0A2C069F0A3C06AF03B
:10289400A4C06BF0A3EC24F068C08AF069C08BF08C
:1028A4006AC08CF06BC08DF0D8EC48F08AC0AAF0F6
:1028B4008BC0ABF08CC0ACF08DC0ADF072D0AAC0B0
:1028C4000FF0ABC010F0ACC011F0ADC012F0BA51B3
:1028D400040D4D0EF324F66E220EF420F76E09005B
:1028E400F5CF13F00900F5CF14F00900F5CF15F07A
:1028F4000A00F5CF16F0CEEC4EF00FC0B0F010C0C9
:10290400B1F011C0B2F012C0B3F0B0C00FF0B1C05A
:1029140010F0B2C011F0B3C012F00A0E136E000E24
:10292400146E000E156E000E166EA6EC52F00FC05B
:10293400B0F010C0B1F011C0B2F012C0B3F0000199
:10294400B051300F95C0D9FF96C0DAFFDF6E954BBA
:10295400962BA64BA72BAAC00FF0ABC010F0ACC0AF
:1029640011F0ADC012F0BA51040D4D0EF324F66E01
:10297400220EF420F76E0900F5CF13F00900F5CF0D
:1029840014F00900F5CF15F00A00F5CF16F0A6EC07
:1029940052F00FC0AAF010C0ABF011C0ACF012C0DE
:1029A400ADF00001BA07BA29D8B40ED088D795C0C3
:1029B400D9FF96C0DAFF300EDF6E954B962BA64BEF
:1029C400A72BB407D8A0B507B451B511D8B432D0E9
:1029D400EED7B451B511D8A408D0AA51AB11AC119B
:1029E400AD11D8A402D0B44BB52BBA519D6F9E6BD8
:1029F400B4519D5D9E51800A9F6FB551800A9F59C5
:102A0400D8A00BD0BA519D6F9E6B9D51B45DB5514A
:102A1400800A9F6F9E51800A9F59A8C09DF0030EA3
:102A24009D17D8B407D095C0D9FF96C0DAFF2D0EF4
:102A3400DF6E5FD497C0F6FF98C0F7FF974B982BD3
:102A44000800F5CFBAF0BA51D8A449D495C0D9FF3B
:102A540096C0DAFF000EDF6EA6C095F0A7C096F010
:102A64001200A0D2E35104E1140EE25DD8A01200DA
:102A7400000EF66F000EE36F000EE26F000EF56FAE
:102A8400010EC56F12002BEC4BF00009D8B409D02D
:102A9400000EF66F000EE36F000EE26F020EC56FBC
:102AA4001200F52B020EF56505D0000EF56F020E2F
:102AB400C56F1200000EE36F000EE26F140EC76FB5
:102AC4000F0EC56F010EC66F1200F65132EC36F0D0
:102AD4000001F651C80FD96EDA6A000EDF6EF651A6
:102AE400CA0FD96EDA6A000EDF6EF651CC0FD96EBA
:102AF400DA6A000EDF6EF65191EC5BF00001C36FF1
:102B0400C305D8A432D0F651C80FD96EDA6A010EC3
:102B1400DF6EF6513E0D370EF3240F6E020EF420D5
:102B2400106E000E126E3C0E116E76EC50F0F651E3
:102B34003E0D730EF324D96E020EF420DA6EDE50CD
:102B44000F180AE1DE501018D8A406D0F651CA0FA7
:102B5400D96EDA6A010EDF6E000EF56F000EE36FB8
:102B6400000EE26F030EC56F1200F52B010EF56522
:102B740009D0000EF56F000EE36F000EE26F030E36
:102B8400C56F1200000EE36F000EE26F140EC76FE4
:102B94000F0EC56F020EC66F1200F62B010EF665FE
:102BA400F1D7000EF66F000EE36F000EE26F140E05
:102BB400C76F0F0EC56F040EC66F1200F651C80F13
:102BC400D96EDA6ADE04D8A422D0F651CA0FD96EBF
:102BD400DA6ADE04D8A41BD0F65113EC58F00001D5
:102BE400C46FC405D8A40FD0F651CC0FD96EDA6ADD
:102BF400010EDF6E000EF56F000EE36F000EE26F44
:102C0400050EC56F1200F52B010EF56509D0000EF7
:102C1400F56F000EE36F000EE26F050EC56F120034
:102C2400000EE36F000EE26F140EC76F0F0EC56F38
:102C3400040EC66F1200F62B010EF665F1D7000ED6
:102C4400F66F000EE36F000EE26F000EF56F140EC8
:102C5400C76F0F0EC56F060EC66F12006FEC53F0F0
:102C6400000E0001F66F000EF56F000EE36F640EA8
:102C7400E26F070EC56F1200E35104E1C80EE25D76
:102C8400D8A01200000EE36F000EE26F080EC56FAD
:102C9400120082EC2DF0000E0001E36F000EE26FD3
:102CA400C851D8B40BD0CA51D8B408D0CC51D8B478
:102CB40005D0000EF66F090EC56F1200C951D8B4C5
:102CC4000BD0CB51D8B408D0CD51D8B405D0010E17
:102CD400F66F090EC56F1200100EC56F1200F65183
:102CE400D9EC52F00009D8B40CD0000E0001E36F07
:102CF400000EE26F050EC76F0F0EC56F0A0EC66F8A
:102D04001200000E0001E36F000EE26F0E0EC56F9D
:102D14001200F651E7EC44F00009D8B4F2D7000EE3
:102D24000001E36F000EE26F020EC76F0F0EC56F56
:102D34000B0EC66F1200F6510BEC53F00009D8B419
:102D4400E0D7000E0001E36F000EE26F060EC76FBE
:102D54000F0EC56F0C0EC66F1200F65143EC38F01F
:102D64000009D8B4CED7000E0001E36F000EE26F65
:102D74000D0EC56F1200F6513E0D380EF324D96EB8
:102D8400020EF420DA6EDF50D8B480D0F6513E0D36
:102D9400380EF324D96E020EF420DA6E030EDF60CF
:102DA40075D0F651050DE10EF324896F010EF42060
:102DB4008A6FF651040D000EF324D96E010EF4202F
:102DC400DA6EDECF8BF0DECF8CF0DECF8DF0DECF8F
:102DD4008EF0F6513E0D3E0EF324D96E020EF42011
:102DE400DA6EDF508F6FDAEC39F0F651040D000E15
:102DF400F324D96E010EF420DA6E89C0DEFF8AC096
:102E0400DEFF8BC0DEFF8CC0DEFFF651040D000E2A
:102E1400F324D96E010EF420DA6EDECF36F0DECF65
:102E240037F0DECF38F0DECF39F0F6513E0D550ED7
:102E3400F324D96E020EF420DA6EDECF3AF0DECF40
:102E44003BF0DECF3CF0DECF3DF03AEC26F0F6511D
:102E5400040D000EF324D96E010EF420DA6E36C090
:102E6400DEFF37C0DEFF38C0DEFF39C0DEFFF651BB
:102E7400040D000EF324D96E010EF420DA6EF6511F
:102E8400040DC10EF324E16E010E18D0F651040DA9
:102E9400C10EF324D96E010EF420DA6EB00EDE6E8C
:102EA400230EDE6E740EDE6EC90EDD6EDD52DD5253
:102EB400F651040D000EF324E16E010EF420E26ECF
:102EC400DECFE6FFDECFE6FFDECFE6FFDECFE6FFB6
:102ED400000EE36F000EE26F0E0EC56F1200F62BAC
:102EE400010EF66509D0000EF66F000EE36F000EBA
:102EF400E26F100EC56F1200000EE36F000EE26F5A
:102F0400020EC76F0F0EC56F090EC66F1200C751B0
:102F1400C16FC26BC151E25DC251E359D8A0120026
:102F2400000EE36F000EE26FC6C0C5F0120008C1C8
:102F3400C9F109C1CAF10AC1CBF10BC1CCF10CC171
:102F4400CDF10DC1CEF10EC1CFF10FC1D0F110C141
:102F5400D1F111C1D2F112C1D3F113C1D4F114C111
:102F6400D5F115C1D6F116C1D7F117C1D8F118C1E1
:102F7400D9F119C1DAF11AC1DBF11BC1DCF11CC1B1
:102F8400DDF11DC1DEF11EC1DFF11FC1E0F1000E54
:102F9400F56F000EF66F000EE36F000EE26F070E82
:102FA400C56F12000001C551000AD8B45BD5010AEF
:102FB400D8B469D5030AD8B488D5010AD8B4EDD5F4
:102FC400070AD8B4FBD5010AD8B435D6030AD8B455
:102FD40045D6010AD8B450D60F0AD8B45AD6010A35
:102FE400D8B47DD6030AD8B494D6010AD8B4A3D6EB
:102FF400070AD8B4B2D6010AD8B4BDD6030AD8B4E5
:103004006ED7010AD8B483D71F0AD8A412008FD769
:1030140022EE00F010EE94F0110EDBCFE3FFE80691
:10302400FCE2980EF66E220EF76E0800F5503F0A89
:10303400D8B439D09F0EF66E220EF76E0800F55004
:103044000F6E106A030E126EE80E116E4AEC5BF0FE
:10305400A00EF66E220EF76E0800F550640DF3CF45
:1030640068F0F4CF69F0A10EF66E220EF76E080038
:10307400F5500A0DF35000016827F45069230F50EE
:10308400682710506923A20EF66E220EF76E080010
:10309400F5506827000E6923B00E68256E6F2F0E59
:1030A40069216F6F05D0000E00016F6F630E6E6FA4
:1030B400940E6E259E6FF80E6F219F6F980EF66E1C
:1030C400220EF76E0800F5503F0AD8B448D1980E86
:1030D400F66E220EF76E0800F5504A0AD8A412D0F4
:1030E400990EF66E220EF76E0800F550610AD8A408
:1030F40009D09A0EF66E220EF76E0800F5506E0A8D
:10310400D8B424D1980EF66E220EF76E0800F5504E
:10311400460AD8B412D1980EF66E220EF76E080045
:10312400F5504D0AD8A412D0990EF66E220EF76E01
:103134000800F550610AD8A409D09A0EF66E220E42
:10314400F76E0800F550720AD8B4EED0980EF66EF9
:10315400220EF76E0800F550410AD8A409D0990E42
:10316400F66E220EF76E0800F550700AD8B4D3D06C
:10317400980EF66E220EF76E0800F5504D0AD8A48C
:1031840012D0990EF66E220EF76E0800F550610A01
:10319400D8A409D09A0EF66E220EF76E0800F550E8
:1031A400790AD8B4AFD0980EF66E220EF76E0800E6
:1031B400F5504A0AD8A412D0990EF66E220EF76E74
:1031C4000800F550750AD8A409D09A0EF66E220E9E
:1031D400F76E0800F5506E0AD8B48BD0980EF66ED0
:1031E400220EF76E0800F5504A0AD8A412D0990EA0
:1031F400F66E220EF76E0800F550750AD8A409D0B1
:103204009A0EF66E220EF76E0800F5506C0AD8B4CA
:1032140067D0980EF66E220EF76E0800F550410A3C
:10322400D8A409D0990EF66E220EF76E0800F55058
:10323400750AD8B44CD0980EF66E220EF76E0800BC
:10324400F550530AD8B43AD0980EF66E220EF76EA3
:103254000800F5504F0AD8B428D0980EF66E220E06
:10326400F76E0800F5504E0AD8B416D0980EF66ED4
:10327400220EF76E0800F550440AD8B404D0000EAC
:10328400896F630E03D0000E896F0C0E886F88C09F
:1032940086F089C087F004D0000E876F0B0E866F0E
:1032A40086C084F087C085F004D0000E856F0A0EB6
:1032B400846F84C082F085C083F004D0000E836FD5
:1032C400090E826F82C080F083C081F004D0000EAA
:1032D400816F080E806F80C07EF081C07FF004D0C3
:1032E400000E7F6F070E7E6F7EC07CF07FC07DF086
:1032F40004D0000E7D6F060E7C6F7CC07AF07DC01A
:103304007BF004D0000E7B6F050E7A6F7AC078F0E4
:103314007BC079F004D0000E796F040E786F78C00A
:1033240076F079C077F004D0000E776F030E766FD5
:1033340076C074F077C075F004D0000E756F020E7D
:10334400746F74C072F075C073F004D0000E736FA4
:10335400010E726F72C070F073C071F004D0000E71
:10336400716F630E706FFF0E70259C6FFF0E7121DD
:103374009D6F980EF66E220EF76E0800F5503F0A08
:10338400D8B437D09C0EF66E220EF76E300E0800BD
:10339400F56005D0000E8D6F000E8C6F17D09C0E5B
:1033A400F66E220EF76E0800F5CF68F0D00E682591
:1033B4000F6E106AFF0E1022000E126E0A0E116EAE
:1033C4004AEC5BF00FC08CF010C08DF09D0EF66ED1
:1033D400220EF76E0800F55000018C25686F000E70
:1033E4008D21696FD00E68258A6FFF0E69218B6F5E
:1033F40004D0000E8B6F630E8A6F8AC09AF08BC064
:103404009BF0A40EF66E220EF76E0800F5503F0AEC
:10341400D8B41BD0A40EF66E220EF76E0800F55039
:103424000A0DF3CF68F0F4CF69F0A50EF66E220E04
:10343400F76E0800F5506827000E6923F00E682522
:103444008E6FFD0E69218F6F04D0000E8F6F630E97
:103454008E6FF70E8E25986FFF0E8F21996FA40E35
:10346400F66E220EF76E0800F5503F0AD8B41BD052
:10347400A70EF66E220EF76E0800F5500A0DF3CF74
:1034840068F0F4CF69F0A80EF66E220EF76E08000D
:10349400F5506827000E6923F00E6825906FFD0E25
:1034A4006921916F04D0000E916F630E906F90C0EC
:1034B40096F091C097F0A40EF66E220EF76E0800F7
:1034C400F5503F0AD8B41BD0AA0EF66E220EF76E42
:1034D4000800F5500A0DF3CF68F0F4CF69F0AB0E95
:1034E400F66E220EF76E0800F5506827000E692369
:1034F400F00E6825926FFD0E6921936F04D0000EC3
:10350400936F630E926F92C094F093C095F0940EF3
:10351400366E3EEC37F036C06AF037C06BF038C018
:103524006CF039C06DF06AC064F06BC065F06CC0BB
:1035340066F06DC067F012000001C36F40C0C4F0B4
:10354400040E0001C3656AD2CC05D8A45DD041C283
:1035540085F042C286F043C287F044C288F045C277
:1035640081F046C282F047C283F048C284F0EEEC98
:1035740055F081C089F082C08AF083C08BF084C08A
:103584008CF0000E8D6F000E8E6F000E8F6F000E8C
:10359400906FC1EC4DF0D8B028D049C289F04AC22E
:1035A4008AF04BC28BF04CC28CF0000E8D6F000E73
:1035B4008E6F000E8F6F000E906FC1EC4DF0D8B07F
:1035C40014D000C189F001C18AF002C18BF003C19B
:1035D4008CF0B00E8D6F230E8E6F740E8F6FC90E2C
:1035E400906FC1EC4DF0D8A00FD0510EC4250F6ED2
:1035F400106A010E1022CA0E116E220E126E5EECBB
:1036040051F00F50000111D000C1BBF001C1BCF05A
:1036140002C1BDF003C1BEF0510EC425BF6FC06B23
:10362400010EC02399EC56F0BB51C427510EC4259A
:10363400D96EDA6A010EDA222C0EDF6EC42BCD05A8
:10364400D8A45DD07FC285F080C286F081C287F0A5
:1036540082C288F083C281F084C282F085C283F082
:1036640086C284F0EEEC55F081C089F082C08AF005
:1036740083C08BF084C08CF0000E8D6F000E8E6FB3
:10368400000E8F6F000E906FC1EC4DF0D8B028D0B3
:1036940087C289F088C28AF089C28BF08AC28CF012
:1036A400000E8D6F000E8E6F000E8F6F000E906FE8
:1036B400C1EC4DF0D8B014D004C189F005C18AF032
:1036C40006C18BF007C18CF0B00E8D6F230E8E6F88
:1036D400740E8F6FC90E906FC1EC4DF0D8A00FD04F
:1036E400510EC4250F6E106A010E1022CA0E116EFF
:1036F400220E126E5EEC51F00F50000111D004C185
:10370400BBF005C1BCF006C1BDF007C1BEF0510E4F
:10371400C425BF6FC06B010EC02399EC56F0BB519A
:10372400C427050EC3657AD1510EC425D96EDA6A51
:10373400010EDA222C0EDF6EC42B08C189F009C1F8
:103744008AF00AC18BF00BC18CF0B00E8D6F230E82
:103754008E6F740E8F6FC90E906FC1EC4DF0D8A0B0
:103764000FD0510EC4250F6E106A010E1022CA0E1E
:10377400116E220E126E5EEC51F00F50000111D04A
:1037840008C1BBF009C1BCF00AC1BDF00BC1BEF059
:10379400510EC425BF6FC06B010EC02399EC56F0C7
:1037A400BB51C427510EC425D96EDA6A010EDA2240
:1037B4002C0EDF6EC42B0CC189F00DC18AF00EC132
:1037C4008BF00FC18CF0B00E8D6F230E8E6F740EC4
:1037D4008F6FC90E906FC1EC4DF0D8A00FD0510E71
:1037E400C4250F6E106A010E1022CA0E116E220E2D
:1037F400126E5EEC51F00F50000111D00CC1BBF001
:103804000DC1BCF00EC1BDF00FC1BEF0510EC425F8
:10381400BF6FC06B010EC02399EC56F0BB51C42797
:10382400060EC365FBD0510EC425D96EDA6A010EAB
:10383400DA222C0EDF6EC42B10C189F011C18AF07C
:1038440012C18BF013C18CF0B00E8D6F230E8E6FEE
:10385400740E8F6FC90E906FC1EC4DF0D8A00FD0CD
:10386400510EC4250F6E106A010E1022CA0E116E7D
:10387400220E126E5EEC51F00F50000111D010C1F7
:10388400BBF011C1BCF012C1BDF013C1BEF0510EAA
:10389400C425BF6FC06B010EC02399EC56F0BB5119
:1038A400C427510EC425D96EDA6A010EDA222C0E11
:1038B400DF6EC42B14C189F015C18AF016C18BF0D8
:1038C40017C18CF0B00E8D6F230E8E6F740E8F6F38
:1038D400C90E906FC1EC4DF0D8A00FD0510EC42585
:1038E4000F6E106A010E1022CA0E116E220E126E95
:1038F4005EEC51F00F50000111D014C1BBF015C1A2
:10390400BCF016C1BDF017C1BEF0510EC425BF6F87
:10391400C06B010EC02399EC56F0BB51C427070EAF
:10392400C3657CD0510EC425D96EDA6A010EDA2241
:103934002C0EDF6EC42B18C189F019C18AF01AC18C
:103944008BF01BC18CF0B00E8D6F230E8E6F740E36
:103954008F6FC90E906FC1EC4DF0D8A00FD0510EEF
:10396400C4250F6E106A010E1022CA0E116E220EAB
:10397400126E5EEC51F00F50000111D018C1BBF073
:1039840019C1BCF01AC1BDF01BC1BEF0510EC42553
:10399400BF6FC06B010EC02399EC56F0BB51C42716
:1039A400510EC425D96EDA6A010EDA222C0EDF6EAE
:1039B400C42B1CC189F01DC18AF01EC18BF01FC12C
:1039C4008CF0B00E8D6F230E8E6F740E8F6FC90E38
:1039D400906FC1EC4DF0D8A00FD0510EC4250F6EDE
:1039E400106A010E1022CA0E116E220E126E5EECC7
:1039F40051F00F50000111D01CC1BBF01DC1BCF02F
:103A04001EC1BDF01FC1BEF0510EC425BF6FC06BF7
:103A1400010EC02399EC56F0BB51C427C4511200C7
:103A2400000E00016C6F27502810D8B404D0295020
:103A34002A10D8A402D0040E120020EE01F029505E
:103A4400D9262A50DA22030EDE18D8B414D020EE78
:103A540001F02950D9262A50DA22040EDE18D8B4EF
:103A64000AD020EE16F02750D9262850DA220A0E62
:103A7400DF6E050E120029C0D9FF2AC0DAFFDF501D
:103A8400D8A408D020EE16F02750D9262850DA22E0
:103A9400120EEED720EE4CF02750D9262850DA2209
:103AA400080EDE18D8B413D027C021F028C022F0A5
:103AB40020EE01F02950D9262A50DA22DF50236E55
:103AC400030E246E020E256E5CEC57F0120020EEFD
:103AD40002F02950D9262A50DA22DECF1BF0DDCF9E
:103AE4001CF0B3EC5CF01BC067F01CC068F020EE67
:103AF40004F02950D9262A50DA22DECF1BF0DDCF7C
:103B04001CF0B3EC5CF01BC06DF01CC06EF020EE3A
:103B140001F02950D9262A50DA22030EDE18D8B42F
:103B240005D0000E0001616F020E04D0000E0001EA
:103B3400616F010E606F60C066F06D516E11D8B494
:103B440006D06E5104E17E0E6D5DD8A013D027C05F
:103B540021F028C022F020EE01F02950D9262A5065
:103B6400DA22DF50236E030E246E030E256E5CEC06
:103B740057F0120020EE01F02750D9262850DA22FF
:103B8400DE50DE10D8A413D027C021F028C022F0C4
:103B940020EE01F02950D9262A50DA22DF50236E74
:103BA400020E246E060E256E5CEC57F0120020EE19
:103BB40001F02950D9262A50DA22030EDE18D8B48F
:103BC40003D020EE07F002D020EE05F02750D926CE
:103BD4002850DA22DECF62F0DDCF63F06251675DF8
:103BE40063516859D8B031D020EE01F02950D9265C
:103BF4002A50DA22030EDE18D8B403D020EE07F0E0
:103C040002D020EE05F02750D9262850DA22DECF44
:103C140064F0DDCF65F067516D252B6E68516E2120
:103C24002C6E2D6AD8B02D2A2E6A64512F6E6551E0
:103C3400306E316A326A2B502F5C2C5030582D5024
:103C440031582E503258D8B013D027C021F028C094
:103C540022F020EE01F02950D9262A50DA22DF5032
:103C6400236E020E246E050E256E5CEC57F01200D6
:103C7400000E6C6F42D020EE01F02750D926285058
:103C8400DA2201D821D00500FA6EDE50FD6EDE5036
:103C9400FE6EF850FF6EFA5066C013F06C51672543
:103CA400146E000E6821156E000E176E000E166E4F
:103CB40020EE03F02750D9262850DA22DECF18F060
:103CC400DDCF19F0020E120013501410D8A413D033
:103CD40027C021F028C022F020EE01F02950D92677
:103CE4002A50DA22DF50236E040E246E070E256E4E
:103CF4005CEC57F0120000016C2B6C512B6E2C6A9B
:103D04006D512B5C6E512C58D8A0B5D76D51020D56
:103D1400F350050F696F270E696502D0020E120079
:103D24001B0E27246A6F000E28206B6F27C0D9FF53
:103D340028C0DAFF6AC0E1FF6BC0E2FFDFCFE7FF14
:103D440020EE01F02950D9262A50DA2210EE01F093
:103D54006A51E1266B51E222DFCFE7FF20EE02F049
:103D64006A51D9266B51DA226D516D25DF6E000E32
:103D74006C6F45D020EE01F02750D9262850DA2266
:103D840001D821D00500FA6EDE50FD6EDE50FE6EC5
:103D9400F850FF6EFA5066C013F06C516725146E2C
:103DA400000E6821156E000E176E000E166E20EEC2
:103DB40003F02750D9262850DA22DECF18F0DDCFC1
:103DC40019F0000E120013C01BF014C01CF0B3EC69
:103DD4005CF000016C51020D6AC02BF06BC02CF03A
:103DE400F3502B26F4502C22030E2B24D96E000EF4
:103DF4002C20DA6E1BC0DEFF1CC0DDFF6C2B6C5167
:103E04002B6E2C6A6D512B5C6E512C58D8A0B2D7F6
:103E14006AC00FF06BC010F0FE0E6925116E126AB5
:103E2400FF0E1222B0EC50F06DC02BF06EC02CF0DF
:103E3400D8902B362C366AC02DF06BC02EF02B5048
:103E44002D262C502E22030E2D24D96E000E2E204A
:103E5400DA6E0FC0DEFF10C0DDFF20EE42F0275007
:103E6400D9262850DA2269C0DFFF20EE16F0275049
:103E7400D9262850DA22000EDF6E000E1200896F58
:103E8400000189AFF5D0896D8951800A120FD8A03D
:103E940089D0000E186E0A0E176E000E126E640E94
:103EA400116E89510F6E106A0FBE100696EC51F018
:103EB4000FC015F010C016F04AEC4EF0090E15268E
:103EC4001550040DAD0EF324F66E200EF420F76E9B
:103ED4000900F5CF6CF00900F5CF6DF00900F5CFBE
:103EE4006EF00A00F5CF6FF0000E186E640E176EB8
:103EF40000018951156E166A15BE16064AEC4EF07D
:103F0400120E15261550040DAD0EF324F66E200E78
:103F1400F420F76E0900F5CF68F00900F5CF69F0D9
:103F24000900F5CF6AF00A00F5CF6BF0A3EC24F09A
:103F340068C085F069C086F06AC087F06BC088F0FD
:103F440085C068F086C069F087C06AF088C06BF0ED
:103F5400000E126E0A0E116E89510F6E106A0FBE9A
:103F6400100696EC51F00F50040DAD0EF324F66ECE
:103F7400200EF420F76E0900F5CF6CF00900F5CFA0
:103F84006DF00900F5CF6EF00A00F5CF6FF0A3ECE9
:103F940024F068C081F069C082F06AC083F06BC00D
:103FA40084F012008951800A750FD8A04CD0000EFD
:103FB400186E0A0E176E8951156E166A15BE16060E
:103FC4004AEC4EF0090E15261550040DAD0EF324DF
:103FD400F66E200EF420F76E0900F5CF68F00900A4
:103FE400F5CF69F00900F5CF6AF00A00F5CF6BF060
:103FF400000E126E0A0E116E000189510F6E106AC6
:104004000FBE100696EC51F00F50040DAD0EF324C4
:10401400F66E200EF420F76E0900F5CF6CF009005F
:10402400F5CF6DF00900F5CF6EF00A00F5CF6FF013
:10403400A3EC24F068C081F069C082F06AC083F008
:104044006BC084F012008951040DAD0EF324F66E9A
:10405400200EF420F76E0900F5CF81F00900F5CFAA
:1040640082F00900F5CF83F00A00F5CF84F0120046
:104074008951800A120FD8A089D0000E186E0A0E3A
:10408400176E000E126E640E116E89510F6E106A57
:104094000FBE100696EC51F00FC015F010C016F0CC
:1040A4004AEC4EF0090E15261550040D790EF32432
:1040B400F66E200EF420F76E0900F5CF6CF00900BF
:1040C400F5CF6DF00900F5CF6EF00A00F5CF6FF073
:1040D400000E186E640E176E00018951156E166A73
:1040E40015BE16064AEC4EF0120E15261550040D98
:1040F400790EF324F66E200EF420F76E0900F5CF46
:1041040068F00900F5CF69F00900F5CF6AF00A00FC
:10411400F5CF6BF0A3EC24F068C085F069C086F09D
:104124006AC087F06BC088F085C068F086C069F00B
:1041340087C06AF088C06BF0000E126E0A0E116E12
:1041440089510F6E106A0FBE100696EC51F00F5095
:10415400040D790EF324F66E200EF420F76E090098
:10416400F5CF6CF00900F5CF6DF00900F5CF6EF0D6
:104174000A00F5CF6FF0A3EC24F068C081F069C0A9
:1041840082F06AC083F06BC084F012008951800A07
:10419400750FD8A04CD0000E186E0A0E176E8951F8
:1041A400156E166A15BE16064AEC4EF0090E152653
:1041B4001550040D790EF324F66E200EF420F76EDC
:1041C4000900F5CF68F00900F5CF69F00900F5CFD3
:1041D4006AF00A00F5CF6BF0000E126E0A0E116E33
:1041E400000189510F6E106A0FBE100696EC51F053
:1041F4000F50040D790EF324F66E200EF420F76EA2
:104204000900F5CF6CF00900F5CF6DF00900F5CF8A
:104214006EF00A00F5CF6FF0A3EC24F068C081F0D3
:1042240069C082F06AC083F06BC084F012008951C7
:10423400040D790EF324F66E200EF420F76E0900B7
:10424400F5CF81F00900F5CF82F00900F5CF83F0B6
:104254000A00F5CF84F012003EC0D9FF3FC0DAFF58
:10426400DF50956F966BFF0E9525FF0E9621800B00
:10427400D8A40DD03EC0D9FF3FC0DAFFDF50956F00
:10428400FF0E9525976F986BFF0E982304D0000EB0
:10429400986F000E976F97C09BF066D121EC5DF08C
:1042A40012000EEC5DF012000F0E3E240F6E000E95
:1042B4003F20106E78EC56F0080E0F181010D8A49A
:1042C40072D10F0E3E240F6E000E3F20106E000EB2
:1042D400126E080E116E59EC59F00009D8B463D16E
:1042E400000E0001996F99513E24956F000E3F20F6
:1042F400966F0F0E9525D96E000E9621DA6E2F0E4D
:104304009925E16EE26A020EE222DFCFE7FF992BE4
:10431400070E9965E8D747D19B51040D280EF32465
:10432400D96E010EF420DA6EDECF85F0DECF86F092
:10433400DECF87F0DECF88F09B513E0D450EF3248F
:10434400D96E020EF420DA6EDECF81F0DECF82F079
:10435400DECF83F0DECF84F0EEEC55F081C089F03F
:1043640082C08AF083C08BF084C08CF0000E8D6F05
:10437400000E8E6F000E8F6F000E906FC1EC4DF02B
:10438400D8B011D19B51040D280EF324D96E010E1F
:10439400F420DA6E9B513E0D410EF324E16E020EC1
:1043A400F420E26EDECFE6FFDECFE6FFDECFE6FFEF
:1043B400DECFE6FF21EE14F09B513E0D6F0EF32489
:1043C400E16E020EF420E26EDECFE6FFDECFE6FF02
:1043D400DECFE6FFDECFE6FF9B513E0D410EF32418
:1043E400D96E020EF420DA6EDECF85F0DECF86F0D1
:1043F400DECF87F0DECF88F09B513E0D450EF324CF
:10440400D96E020EF420DA6EDECF81F0DECF82F0B8
:10441400DECF83F0DECF84F0EEEC55F081C089F07E
:1044240082C08AF083C08BF084C08CF0000E8D6F44
:10443400000E8E6F000E8F6F000E906FC1EC4DF06A
:10444400D8B0B1D09B513E0D410EF324D96E020E6B
:10445400F420DA6EDECF85F0DECF86F0DECF87F093
:10446400DECF88F09B513E0D450EF324D96E020E2B
:10447400F420DA6EDECF81F0DECF82F0DECF83F07F
:10448400DECF84F0EEEC55F081C01DF082C01EF04A
:1044940083C01FF084C020F09B513E0D490EF324CD
:1044A400D96E020EF420DA6EDECF21F0DECF22F0D8
:1044B400DECF23F0DECF24F06CEC31F000019B5111
:1044C4003E0D4D0EF324D96E020EF420DA6E1DC09B
:1044D400DEFF1EC0DEFF1FC0DEFF20C0DEFF63D094
:1044E4000F0E3E241B6E000E3F201C6E88EC3FF026
:1044F4001B5000019A6F020E9A6155D09AC027F2A0
:1045040052D00F0E3E241B6E000E3F201C6E88EC12
:104514003FF01B5000019A6F9A51D8B444D09AC00E
:1045240028F241D00F0E3E241B6E000E3F201C6E5D
:1045340088EC3FF01B5000019A6F060E9A6133D04D
:104544009AC029F230D00F0E3E241B6E000E3F207D
:104554001C6E88EC3FF01B5000019A6F050E9A61A7
:1045640022D09AC02AF21FD020EE02F03E50D92663
:104574003F50DA22DF50030AD8B490D6070AD8B4E1
:1045840090D60E0AD8B490D6010AD8B4C5D6070A74
:10459400D8B4B7D7010AD8B4C5D7030AD8B4A0D7BA
:1045A400010AD8B4D0D720EE0EF03E50D9263F50A1
:1045B400DA22DF50D8B4120020EE02F03E50D926A1
:1045C4003F50DA22090EDF64120020EE02F03E5062
:1045D400D9263F50DA22100EDF601200270E1F6E1C
:1045E400020E206EC9EC55F00001956F20EE01F02B
:1045F4003E50D9263F50DA2295C0DFFF1200DCC3BB
:10460400D9FFDDC3DAFFDF50DE6FDF6BFF0EDE257F
:10461400FF0EDF21800BD8A40DD0DCC3D9FFDDC38E
:10462400DAFFDF50DE6FFF0EDE25E16FE26BFF0E77
:10463400E22304D0000EE26F000EE16FE1C3E0F369
:10464400510E0F6E010E106E030EDC25116E000E5E
:10465400DD21126E5EEC51F00F500301E46F510E38
:10466400E425D96EDA6A010EDA22200EDF6EE42B1D
:1046740020EE0EF0DC51D926DD51DA22DF50D8B419
:104684000BD120EE02F0DC51D926DD51DA22090EDD
:10469400DF6402D120EE02F0DC51D926DD51DA22AA
:1046A400100EDF60F9D0270E1F6E020E206E24EC70
:1046B4005BF0F2D0510EE425D96EDA6A010EDA22EB
:1046C4004F0EDF6EE42B510EE425D96EDA6A010E2B
:1046D400DA224B0EDF6EE42B11D1510EE4250F6E5E
:1046E400106A010E10228B0E116E220E126E5EECF9
:1046F40051F00F50CED0E4C340F020EE02F0DC5174
:10470400D926DD51DA22DF509EEC1AF00301E46F62
:10471400F5D0E407000EE36F2F0EE325D96EDA6AB5
:10472400020EDA22510EE425E16EE26A010EE22263
:10473400DFCFE7FFE42BE32B070EE365EDD7DED0F5
:10474400E0513E0D410EF324D96E020EF420DA6ED0
:10475400DECFBBF0DECFBCF0DECFBDF0DECFBEF0EF
:10476400510EE4250001BF6FC06B010EC02399EC0C
:1047740056F0BB518ED0020127511D6E1E6A1F6A6E
:10478400206A510E0301E425216E226A010E2222C1
:1047940034EC3BF01D500301E42720EE01F0DC5122
:1047A400D926DD51DA22DF50D8B4A8D0020127512E
:1047B4003DEC5DF0A3D0020128511D6E1E6A1F6AF4
:1047C400206A510E0301E425216E226A010E222281
:1047D40034EC3BF01D500301E42720EE01F0DC51E2
:1047E400D926DD51DA22DF50D8B488D0000E010179
:1047F4004E6F84D0020129511D6E1E6A1F6A206A01
:10480400510E0301E425216E226A010E222234ECAA
:104814003BF01D500301E42720EE01F0DC51D926C2
:10482400DD51DA22DF50D8A4E1D768D002012A5141
:104834001D6E1E6A1F6A206A510E0301E425216E53
:10484400226A010E222234EC3BF01D500301E427BE
:1048540020EE01F0DC51D926DD51DA22DF50D8B444
:104864004DD002012A5132EC5CF001014F6F46D069
:104874002BC21DF02CC21EF02DC21FF02EC220F040
:10488400510EE425216E226A010E222234EC3BF003
:104894001D500301E42732D0030120EE02F0DC5165
:1048A400D926DD51DA22DF50010AD8B403D7030A2E
:1048B400D8B413D7070AD8B41ED7030AD8B41BD761
:1048C400010AD8B418D70F0AD8B415D7010AD8B436
:1048D40021D7030AD8B41DD7010AD8B431D7070A9F
:1048E400D8B469D7010AD8B485D7030AD8B443D752
:1048F400010AD8B49BD71F0AD8B4BAD7510E030102
:10490400E425D96EDA6A010EDA220D0EDF6EE42B8D
:10491400510EE425D96EDA6A010EDA220A0EDF6E30
:10492400E42B510EE425D96EDA6A010EDA22000E68
:10493400DF6EE42B510E166E010E176E5DEC5BF00C
:10494400120000016B51800B746F6B516B25766FF5
:104954006ABF76817651D8B40DD07629D8A408D010
:10496400000E686F000E696F000E6A6F000E6B6FA9
:104974006A8F08D0000E686F000E696F000E6A6FB0
:10498400000E6B6F6F51800B741B6F516F25756F29
:104994006EBF75817551D8B40DD07529D8A408D0CF
:1049A400000E6C6F000E6D6F000E6E6F000E6F6F59
:1049B4006E8F08D0000E6C6F000E6D6F000E6E6F60
:1049C400000E6F6F7551D8B403D07651D8A409D0B6
:1049D400000E686F000E696F000E6A6F000E6B6F39
:1049E40012006E516803F3CF7FF0F4CF80F07F5153
:1049F400776F786B796B7A6B80517B6F7C6B7D6B97
:104A04007E6B6D516903F3CF7FF0F4CF80F07F515B
:104A14007727000E782379237A2380517B27000E91
:104A24007C237D237E236C516A03F3CF7FF0F4CF84
:104A340080F07F517727000E782379237A238051E1
:104A44007B27000E7C237D237E2379C07AF078C0F7
:104A540079F077C078F0776B6C516903F3CF7FF00E
:104A6400F4CF80F07F51772780517823000E79238B
:104A7400000E7A236D516803F3CF7FF0F4CF80F0FA
:104A84007F51772780517823000E7923000E7A23F3
:104A940079C07AF078C079F077C078F0776B6C5190
:104AA4006803F3CF7FF0F4CF80F07F5177278051F4
:104AB4007823000E7923000E7A236E516903F3CF15
:104AC4007FF0F4CF80F07F517B2780517C23000E50
:104AD4007D23000E7E236D516A03F3CF7FF0F4CF64
:104AE40080F07F517B2780517C23000E7D23000EB4
:104AF4007E236E516A03F3CF7FF0F4CF80F07F51B1
:104B0400706F8051716F726B736B72C073F071C090
:104B140072F070C071F0706B70517B2771517C23FF
:104B240072517D2373517E237A517B27000E7C239F
:104B34007D237E2379C07AF078C079F077C078F04D
:104B4400776B755176C070F0716B7027000E71230E
:104B5400820E70257F6FFF0E7121806F0FD0D89069
:104B64007B377C377D377E377ABF7B81D890773728
:104B7400783779377A377F07D8A080077DAFEFD7AA
:104B8400000E756F7AAF17D0FF0E7715706FFF0E9A
:104B94007815716FFF0E7915726F7F0E7A15736F2A
:104BA4007051711172117311D8B403D0010E756F65
:104BB40002D07BB1FBD77551D8B41FD0010E7B272F
:104BC400000E7C237D237E237EA117D07BC070F052
:104BD4007CC071F07DC072F07EC073F073357333A6
:104BE40072337133703370C07BF071C07CF072C06B
:104BF4007DF073C07EF07F4B802B80BF0DD0805141
:104C040003E17F29D8A008D0000E7B6F000E7C6FD3
:104C1400800E7D6F7F0E20D080BF05D080510EE1C5
:104C24007F05D8B00BD0000E7B6F000E7C6F000E9A
:104C34007D6F000E7E6F000E746F0FD07FC076F014
:104C4400FF0E7B17FF0E7C177F0E7D17000E7E175D
:104C540076B17D8FD89076317E6F74517E137BC090
:104C640068F07CC069F07DC06AF07EC06BF0120011
:104C74003950800B0001646F39503924666F38BE97
:104C840066816651D8B40DD06629D8A408D0000E28
:104C9400366E000E376E000E386E000E396E388E8A
:104CA40006D0000E366E000E376E000E386E000E03
:104CB400396E3D50800B656F64516519D8A4648DBD
:104CC4003D503D24656F3CBE65816551D8B40DD01F
:104CD4006529D8A408D0000E3A6E000E3B6E000E73
:104CE4003C6E000E3D6E3C8E06D0000E3A6E000EF9
:104CF4003B6E000E3C6E000E3D6E6651655DD8B095
:104D040022D064AD02D0800E641B66C067F065C01B
:104D140066F067C065F036C067F03AC036F067C029
:104D24003AF037C067F03BC037F067C03BF038C09B
:104D340067F03CC038F067C03CF039C067F03DC054
:104D440039F067C03DF0000E676F665165C060F0D2
:104D5400616B605F000E615B61BF2CD0615104E147
:104D64001A0E605DD8A026D036503710381039108E
:104D7400D8B402D0010E01D0000E676F000E366E5B
:104D8400000E376E000E386E000E396E65C066F088
:104D940015D067A105D0D89067310109676F02D09B
:104DA400D890673336B0678F393439323832373276
:104DB4003632662B6551665DD8A0EBD764BD28D02A
:104DC4006651D8A409D0000E366E000E376E000E60
:104DD400386E000E396E12003A5036263B50372298
:104DE4003C5038223D50392239A071D067A105D0FA
:104DF400D89067310109676F02D0D890673336B015
:104E0400678F39343932383237323632662B5FD0D5
:104E14003A50365C3B5037583C5038583950800A29
:104E2400606F3D50800A6059D8B025D036503A5C46
:104E3400606F37503B58616F38503C58626F39503F
:104E44003D58636FFF0E6025366EFF0E6121376E8D
:104E5400FF0E6221386EFF0E6321396E800E641BD3
:104E6400676D6751D8A40FD0010E3626000E372285
:104E74003822392208D03A50365E3B50375A3C50DB
:104E8400385A3D50395A3650371038103910D8A492
:104E94001CD06751D8A419D0000E366E000E376EA0
:104EA400000E386E000E396E1200D8903636373642
:104EB4003836393667BF368067A102D0D88001D032
:104EC400D89067376651D8A4660738AEEED7000E7F
:104ED400656F67AF0BD067C060F07F0E6017D8B402
:104EE40003D0010E656F02D036B0FBD76551D8B43C
:104EF40020D0010E3626000E37223822392239A05E
:104F040018D036C060F037C061F038C062F039C0E4
:104F140063F06335633362336133603360C036F00A
:104F240061C037F062C038F063C039F06629D8A494
:104F3400662B6629D8B403D06651D8A40DD0000ED0
:104F4400366E000E376E000E386E000E396E6651E6
:104F5400D8A402D0000E646F66A102D0388E01D0AE
:104F6400389ED8906631396E64BF398E36C036F0BB
:104F740037C037F038C038F039C039F01200000EAD
:104F840000018C6F20EE81F00A0EDE6AE806FDE275
:104F940020EE60F01F0EDE6AE806FDE2000E906F60
:104FA400000E8F6F000E806F25C0D9FF26C0DAFF78
:104FB400DF50916F53D1410E9119D8B40CD0540ED7
:104FC4009119D8B408D0610E9119D8B404D0740ED4
:104FD4009119D8A450D19051810FD96EDA6A91C039
:104FE400DFFF902B010E906546D1410E8119D8B494
:104FF40004D0610E8119D8A40AD0540E8219D8B4F1
:1050040004D0740E8219D8A402D0010E67D0020E07
:105014001200200E9119D8A405D0020E8C6F000E38
:105024008F6F29D1080E906550D0410E8119D8B4E4
:1050340004D0610E8119D8A448D0540E8219D8B472
:1050440004D0740E8219D8A440D0430E8319D8B466
:1050540004D0630E8319D8A438D0530E8419D8B45D
:1050640004D0730E8419D8A430D04D0E8519D8B449
:1050740004D06D0E8519D8A428D04F0E8619D8B443
:1050840004D06F0E8619D8A420D0440E8719D8B442
:1050940004D0640E8719D8A418D0450E8819D8B442
:1050A40004D0650E8819D8A410D04C0E8919D8B430
:1050B40004D06C0E8919D8A408D0020E8C6F000E8F
:1050C4008F6F91C060F08F2BD6D00D0E9119D8B48C
:1050D40004D00A0E9119D8A403D0030E8C6FCBD040
:1050E4000A0E906502D0000E906F9051810FD96E18
:1050F400DA6A91C0DFFF902BBED00D0E9119D8B49F
:10510400ECD70A0E9119D8B4E8D71F0E8F6502D0D8
:10511400000E8F6F8F51600FD96EDA6A91C0DFFF76
:10512400D2D7000E8D6F810E206E8D0E216E06EC8F
:105134004EF000018E6F8EBF6AD727C0D9FF28C0FA
:10514400DAFF8DC0DFFF8E510D0D060EF324F66ECF
:10515400210EF420F76E20EE02F02750D9262850B5
:10516400DA220800F5CFDFFF8E510D0D0C0EF32669
:10517400000EF422060EF324F66E210EF420F76ED0
:1051840020EEAFF02750D9262850DA220800F5CFB8
:10519400DFFF030E27240F6E000E2820106E810EF1
:1051A400116E126A5EEC51F044D020EE0EF02750DE
:1051B400D9262850DA22000E11D00F0E2724106EA3
:1051C400000E2820116E600E126ECFEC53F020EE0C
:1051D4000EF02750D9262850DA22010EDF6E3CD07B
:1051E4000F0E2724106E000E2820116E600E126E12
:1051F400CFEC53F01050111018D0296A292A20EE50
:105204000EF02750D9262850DA2229C0DFFF24D0F7
:105214000F0E27240F6E000E2820106E600E116EE4
:10522400126A5EEC51F00F501010D8A4E6D7296A28
:10523400E6D720EEAFF02750D9262850DA22DF50E7
:10524400000AD8B4B2D7010AD8B4B7D7030AD8B47D
:10525400C7D7010AD8B4DCD7010E12008C51000A5A
:10526400D8B4A9D6010AD8B4D4D6030AD8B445D739
:10527400010AD8B456D79151D8B402D0254A262A67
:105284009151D8A491D680511200000E8A6F000E5D
:105294008B6F000E8C6F000E8D6F8905D8A466D1BC
:1052A40081C00FF082C010F083C011F084C012F0EE
:1052B400000E136E000E146EC80E156E410E166E9F
:1052C400BAEC45F0D8A03AD081C00FF082C010F0FB
:1052D40083C011F084C012F0000E136E000E146E21
:1052E400F00E156E410E166EBAEC45F0D8B026D00D
:1052F400960E00016C6F430E6D6F0B0E6E6F3D0EBC
:105304006F6F81C068F082C069F083C06AF084C0A6
:105314006BF0A3EC24F068C036F069C037F06AC0C3
:1053240038F06BC039F0BC0E3A6E740E3B6E530EFF
:105334003C6EBF0E3D6E3AEC26F0E9D081C00FF012
:1053440082C010F083C011F084C012F0000E136EFE
:10535400000E146EF00E156E410E166EBAEC45F08A
:10536400D8A03AD081C00FF082C010F083C011F0F1
:1053740084C012F0000E136E000E146E080E156E2B
:10538400420E166EBAEC45F0D8B026D0CD0E000110
:105394006C6FCC0E6D6F4C0E6E6F3D0E6F6F81C0D7
:1053A40068F082C069F083C06AF084C06BF0A3EC3B
:1053B40024F068C036F069C037F06AC038F06BC0BA
:1053C40039F0680E3A6E910E3B6EAD0E3C6EBF0E18
:1053D4003D6E3AEC26F09BD081C00FF082C010F0F5
:1053E40083C011F084C012F0000E136E000E146E10
:1053F400080E156E420E166EBAEC45F0D8A03AD0DF
:1054040081C00FF082C010F083C011F084C012F08C
:10541400000E136E000E146E180E156E420E166EEC
:10542400BAEC45F0D8B026D05C0E00016C6F8F0E3C
:105434006D6FC20E6E6F3D0E6F6F81C068F082C0DB
:1054440069F083C06AF084C06BF0A3EC24F068C0F8
:1054540036F069C037F06AC038F06BC039F0870E97
:105464003A6E160E3B6E390E3C6EC00E3D6E3AEC33
:1054740026F04DD081C00FF082C010F083C011F02F
:1054840084C012F0000E136E000E146E180E156E0A
:10549400420E166EBAEC45F0D8A042D081C00FF08F
:1054A40082C010F083C011F084C012F0000E136E9D
:1054B400000E146E240E156E420E166EBAEC45F0F4
:1054C400D8B02ED0CD0E00016C6FCC0E6D6FCC0E0B
:1054D4006E6F3D0E6F6F81C068F082C069F083C04B
:1054E4006AF084C06BF0A3EC24F068C036F069C0A5
:1054F40037F06AC038F06BC039F0660E3A6E660E4B
:105504003B6E460E3C6EC00E3D6E3AEC26F036C045
:105514008AF037C08BF038C08CF039C08DF026D0BB
:1055240081C00FF082C010F083C011F084C012F06B
:10553400000E136E000E146E240E156E420E166EBF
:10554400BAEC45F0D8A009D0000E00018A6F000E15
:105554008B6F800E8C6F3F0E08D0000E00018A6F97
:10556400000E8B6F000E8C6F000E8D6F8AC081F061
:105574008BC082F08CC083F08DC084F0120020EECA
:1055840004F08D51D9268E51DA22DECF1DF0DECF04
:105594001EF0DECF1FF0DECF20F08DC0D9FF8EC00D
:1055A400DAFFDECF3AF0DECF3BF0DECF3CF0DECFE9
:1055B4003DF020EE04F08D51D9268E51DA22DECF53
:1055C40036F0DECF37F0DECF38F0DECF39F03AEC0C
:1055D40026F036C021F037C022F038C023F039C09D
:1055E40024F06CEC31F0000120EE14F08D51D9263A
:1055F4008E51DA221DC0DEFF1EC0DEFF1FC0DEFF9B
:1056040020C0DEFF20EE14F08D51D9268E51DA220F
:10561400DECF6CF0DECF6DF0DECF6EF0DECF6FF05C
:1056240020EE10F08D51D9268E51DA22DECF85F08E
:10563400DECF86F0DECF87F0DECF88F08FC081F03A
:1056440090C082F091C083F092C084F0EEEC55F0EB
:1056540081C068F082C069F083C06AF084C06BF0D6
:10566400A3EC24F068C097F069C098F06AC099F080
:105674006BC09AF097C036F098C037F099C038F0F4
:105684009AC039F020EE10F08D51D9268E51DA22CD
:10569400DECF3AF0DECF3BF0DECF3CF0DECF3DF0A4
:1056A4003AEC26F020EE0CF08D51D9268E51DA22F8
:1056B40036C0DEFF37C0DEFF38C0DEFF39C0DEFF94
:1056C40020EE04F08D51D9268E51DA22DECF6CF013
:1056D400DECF6DF0DECF6EF0DECF6FF020EE14F093
:1056E4008D51D9268E51DA22DECF85F0DECF86F0B9
:1056F400DECF87F0DECF88F0000E816F000E826F60
:10570400800E836F3F0E846FEEEC55F081C068F01D
:1057140082C069F083C06AF084C06BF0A3EC24F00B
:1057240068C097F069C098F06AC099F06BC09AF0AD
:1057340020EE08F08D51D9268E51DA22DECF6CF09E
:10574400DECF6DF0DECF6EF0DECF6FF020EE0CF02A
:105754008D51D9268E51DA22DECF85F0DECF86F048
:10576400DECF87F0DECF88F020EE10F08D51D92601
:105774008E51DA22DECF81F0DECF82F0DECF83F0ED
:10578400DECF84F0EEEC55F081C089F082C08AF05F
:1057940083C08BF084C08CF0F5EC57F089C068F0BE
:1057A4008AC069F08BC06AF08CC06BF0A3EC24F063
:1057B40068C093F069C094F06AC095F06BC096F02D
:1057C40097C036F098C037F099C038F09AC039F0D5
:1057D40093C03AF094C03BF095C03CF096C03DF0C5
:1057E4003AEC26F020EE04F08D51D9268E51DA22BF
:1057F40036C0DEFF37C0DEFF38C0DEFF39C0DEFF53
:1058040020EE0CF08D51D9268E51DA2210EE10F0D4
:105814008D51E1268E51E222DECFE6FFDECFE6FF98
:10582400DECFE6FFDECFE6FF20EE0CF08D51D92669
:105834008E51DA22DECF8DF0DECF8EF0DECF8FF008
:10584400DECF90F01200000E0001736F335034105D
:10585400D8A402D0040E120020EE42F03350D92610
:105864003450DA22000EDF6E20EE16F03350D926C3
:105874003450DA22000EDF6E20EE4CF03350D9267D
:105884003450DA22030EDF640AD0430E3324356E1B
:10589400000E3420366E35503610D8A40AD020EECF
:1058A40016F03350D9263450DA22020EDF6E050E7C
:1058B40012006F0E0F6E106A20EE4CF03350D92692
:1058C4003450DA22DF50356E35503324366E000EF4
:1058D4003420376E410E3624116E000E3720126EBE
:1058E400000E146E020E136E56EC56F0430E332463
:1058F4000F6E000E3420106E20EE4CF03350D9267B
:105904003450DA22DF50356EFE0E3524116E126AE1
:10591400FF0E1222B0EC50F000016F510F1804E199
:1059240070511018D8B408D020EE16F03350D92690
:105934003450DA22010EBAD7430E3324766F000EA8
:105944003420776F33C0D9FF34C0DAFF76C0E1FF6B
:1059540077C0E2FFDE50E618D8B409D076C0D9FF8C
:1059640077C0DAFFDF50D8B402D0000E1200000E68
:10597400726F000E716F20EE17F03350D926345039
:10598400DA22DE50DE10D8B466D0000E756F000E39
:10599400746F55D020EE01F07651D9267751DA2272
:1059A40074C00FF075C010F0000E126E030E116E6D
:1059B4004AEC5BF010EE17F03350E1263450E2224B
:1059C400E6CF36F0E5CF37F00F503624E16E1050B5
:1059D4003720E26EDE50E618D8A42ED0010E000166
:1059E400726F74C00FF075C010F0000E126E030ECB
:1059F400116E4AEC5BF020EE17F03350D926345088
:105A0400DA22DECF35F0DDCF36F00F5035261050D8
:105A14003622010E3524D96E000E3620DA6EDE50A1
:105A2400DE10D8B405D0000E0001736F010E02D051
:105A3400000E0001716F0FD00001744B752B20EE26
:105A440019F03350D9263450DA22DE50745DDE501A
:105A54007559D8A09FD77251D8A423D0010E716F65
:105A640012D033C027F034C028F076C029F077C0B4
:105A74002AF012EC1DF00001736F13D0000E736F47
:105A8400000E716F0ED020EE01F07651D9267751B9
:105A9400DA22DF50030AD8B4E4D7070AD8B4E1D72E
:105AA400EDD77151D8A42AD07251D8B413D033C0D1
:105AB40021F034C022F020EE01F07651D92677513E
:105AC400DA22DF50236E010E246E0B0E256E5CEC81
:105AD40057F012D033C021F034C022F020EE01F090
:105AE4007651D9267751DA22DF50236E010E246EC7
:105AF400090E256E5CEC57F00001736F73511200B0
:105B0400820E2B6E840E2C6E7E0E2D6E860E2E6EE5
:105B1400880E2F6E8A0E306E8C0E316E800E326EB1
:105B2400DDEC3BF02BC07CF02CC07DF000017C51FF
:105B34007D11D8A41200842903E18529D8B424D086
:105B440084C00FF085C010F0116A126A000E2BECAD
:105B54003DF00FC01DF010C01EF011C01FF012C0A8
:105B640020F0000E216E000E226E200E236E410ED8
:105B7400246E6CEC31F01DC008F11EC009F11FC089
:105B84000AF120C00BF109D0B00E0101086F230EF9
:105B9400096F740E0A6FC90E0B6F0001862903E1A9
:105BA4008729D8B424D086C00FF087C010F0116ABA
:105BB400126A000E2BEC3DF00FC01DF010C01EF059
:105BC40011C01FF012C020F0000E216E000E226ED4
:105BD400200E236E410E246E6CEC31F01DC00CF1CE
:105BE4001EC00DF11FC00EF120C00FF109D0B00E80
:105BF40001010C6F230E0D6F740E0E6FC90E0F6F23
:105C04000001822903E18329D8B424D082C00FF093
:105C140083C010F0116A126A000E2BEC3DF00FC025
:105C24001DF010C01EF011C01FF012C020F0000EB5
:105C3400216E000E226E200E236E410E246E6CEC3B
:105C440031F01DC010F11EC011F11FC012F120C0AF
:105C540013F109D0B00E0101106F230E116F740EF1
:105C6400126FC90E136F00018A2904E17F0E8B198C
:105C7400D8B427D08AC00FF08BC010F0000E10BE2D
:105C8400FF0E116E126E010E2BEC3DF00FC01DF0D5
:105C940010C01EF011C01FF012C020F0000E216EC3
:105CA400000E226E480E236E430E246E6CEC31F00F
:105CB4001DC014F11EC015F11FC016F120C017F14C
:105CC40009D0B00E0101146F230E156F740E166FF8
:105CD400C90E176F0001882904E17F0E8919D8B411
:105CE40027D088C00FF089C010F0000E10BEFF0E40
:105CF400116E126E010E2BEC3DF00FC01DF010C0A2
:105D04001EF011C01FF012C020F0000E216E000E14
:105D1400226EC80E236E420E246E6CEC31F01DC050
:105D240018F11EC019F11FC01AF120C01BF109D0CF
:105D3400B00E0101186F230E196F740E1A6FC90E7D
:105D44001B6F00018C2904E17F0E8D19D8B427D074
:105D54008CC00FF08DC010F0000E10BEFF0E116E3F
:105D6400126E010E2BEC3DF00FC01DF010C01EF0A2
:105D740011C01FF012C020F0000E216E000E226E22
:105D8400200E236E410E246E6CEC31F01DC01CF10C
:105D94001EC01DF11FC01EF120C01FF11200B00E65
:105DA40001011C6F230E1D6F740E1E6FC90E1F6F31
:105DB4001200B56F0001B5513E0D450EF324D96EA6
:105DC400020EF420DA6EDECFB1F0DECFB2F0DECF19
:105DD400B3F0DECFB4F0B5513E0D410EF324D96ECD
:105DE400020EF420DA6EDECFB6F0DECFB7F0DECFEF
:105DF400B8F0DECFB9F0B5513E0D490EF324D96E9B
:105E0400020EF420DA6EDECFA9F0DECFAAF0DECFE8
:105E1400ABF0DECFACF0B6C085F0B7C086F0B8C04A
:105E240087F0B9C088F0B1C081F0B2C082F0B3C0CD
:105E340083F0B4C084F0EEEC55F081C089F082C0E8
:105E44008AF083C08BF084C08CF0000E8D6F000E3E
:105E54008E6F000E8F6F000E906FC1EC4DF0D8B0B6
:105E640014D0B6C00FF0B7C010F0B8C011F0B9C06C
:105E740012F0B1C013F0B2C014F0B3C015F0B4C046
:105E840016F0BAEC45F0D8A00AD0000E0001956FC8
:105E9400000E966F000E976F000E986F1200B6C03A
:105EA40085F0B7C086F0B8C087F0B9C088F0B1C03B
:105EB40081F0B2C082F0B3C083F0B4C084F0EEECE1
:105EC40055F081C021F082C022F083C023F084C049
:105ED40024F0B6C06CF0B7C06DF0B8C06EF0B9C0B5
:105EE4006FF0A9C068F0AAC069F0ABC06AF0ACC09A
:105EF4006BF0A3EC24F068C01DF069C01EF06AC00A
:105F04001FF06BC020F06CEC31F01DC09DF01EC082
:105F14009EF01FC09FF020C0A0F0B6C085F0B7C0AF
:105F240086F0B8C087F0B9C088F0B1C081F0B2C0C3
:105F340082F0B3C083F0B4C084F0EEEC55F081C0BD
:105F440021F082C022F083C023F084C024F099C0E1
:105F54006CF09AC06DF09BC06EF09CC06FF0A9C04D
:105F640068F0AAC069F0ABC06AF0ACC06BF0A3ECF7
:105F740024F068C01DF069C01EF06AC01FF06BC039
:105F840020F06CEC31F01DC0A1F01EC0A2F01FC0C7
:105F9400A3F020C0A4F09DC085F09EC086F09FC0F1
:105FA40087F0A0C088F0A1C081F0A2C082F0A3C095
:105FB40083F0A4C084F0EEEC55F081C0A5F082C05B
:105FC400A6F083C0A7F084C0A8F0A5C081F0A6C045
:105FD40082F0A7C083F0A8C084F095C085F096C075
:105FE40086F097C087F098C088F0EEEC55F081C039
:105FF400ADF082C0AEF083C0AFF084C0B0F0B55154
:106004003E0D3D0EF324D96E020EF420DA6EDE044A
:10601400D8A412D0ADC01BF0AEC01CF0AFC01DF0B0
:10602400B0C01EF015EC35F01BC0ADF01CC0AEF0D6
:106034001DC0AFF01EC0B0F0ADC095F0AEC096F07C
:10604400AFC097F0B0C098F01200000E0101E16FEC
:10605400000EE26F000EE36F000EE46F000EE56FBA
:10606400000EE66F000EE76F000EE86F000EE96F9A
:10607400000EEA6F000E9D6F000E9E6F000E9F6F64
:10608400000EA06F000E956F000E966F000E976FB6
:10609400000E986F000E916F000E926F000E936FBA
:1060A400000E946F000EA56F000EA66F000EA76F72
:1060B400000EA86F000EA16F000EA26F000EA36F5A
:1060C400000EA46F000E996F000E9A6F000E9B6F66
:1060D400000E9C6F000EB56F000EB66F000EB76F0A
:1060E400000EB86F000EAD6F000EAE6F000EAF6FF6
:1060F400000EB06F000EA96F000EAA6F000EAB6FFA
:10610400000EAC6F000EBD6F000EBE6F000EBF6FB1
:10611400000EC06F000EB96F000EBA6F000EBB6F99
:10612400000EBC6F000EB16F000EB26F000EB36FA5
:10613400000EB46F910E0F6E010E106E000E116EF4
:10614400000E126E800E136E3F0E146E9AEC5CF00D
:10615400910E0F6E010E106E000E116E000E126E77
:10616400800E136E3F0E146E6EEC5CF0910E0F6E8B
:10617400010E106E6F0E116E120E126E830E136EE0
:106184003A0E146E5FEC5CF0A90E0F6E010E106EE9
:10619400000E116E000E126E800E136E3F0E146E02
:1061A4009AEC5CF0A90E0F6E010E106E000E116ECB
:1061B400000E126E800E136E3F0E146E6EEC5CF0C9
:1061C400A90E0F6E010E106E6F0E116E120E126E6E
:1061D400830E136E3A0E146E5FEC5CF0000E000139
:1061E400C86F000ECA6F000ECC6FB00E0101006FB5
:1061F400230E016F740E026FC90E036FB00E206F71
:10620400230E216F740E226FC90E236F000E286FA8
:10621400000E296F000E2A6F000E2B6F000E000176
:10622400C96F000ECB6F000ECD6FB00E0101046F6D
:10623400230E056F740E066FC90E076FB00E246F20
:10624400230E256F740E266FC90E276F000E2C6F58
:10625400000E2D6F000E2E6F000E2F6FB00E086F04
:10626400230E096F740E0A6FC90E0B6FB00E0C6FFC
:10627400230E0D6F740E0E6FC90E0F6FB00E106FDC
:10628400230E116F740E126FC90E136FB00E146FBC
:10629400230E156F740E166FC90E176FB00E186F9C
:1062A400230E196F740E1A6FC90E1B6FB00E1C6F7C
:1062B400230E1D6F740E1E6FC90E1F6F000E00019A
:1062C400F66F000EE36F000EE26F000EF56F000E26
:1062D400C56F12002050800B2D6E20502024346E88
:1062E4001FBE34803450D8B40DD03428D8A408D07C
:1062F400000E1D6E000E1E6E000E1F6E000E206E30
:106304001F8E06D0000E1D6E000E1E6E000E1F6E38
:10631400000E206E2450800B2D1A24502424356E38
:1063240023BE35803550D8B40DD03528D8A408D034
:10633400000E216E000E226E000E236E000E246EDF
:10634400238E06D0000E216E000E226E000E236EE8
:10635400000E246E2150221023102410D8A417D02C
:10636400000E1D6E000E1E6E000E1F6E000E206EBF
:10637400800E1F127F0E20122D5020121DC01DF002
:106384001EC01EF01FC01FF020C020F012003450A9
:10639400D8A409D0000E1D6E000E1E6E000E1F6ED6
:1063A400000E206E1200355034C025F0266A255E9A
:1063B400000E265A7F0E25242E6E000E26202F6EE8
:1063C4001DC029F01EC02AF01FC02BF020C02CF0E5
:1063D400000E1D6E000E1E6E000E1F6E000E206E4F
:1063E400000E306E000E316E000E326E000E336EF3
:1063F400000E356E28D03550D8B411D0D890293637
:106404002A362B362C36D8901D361E361F362036AB
:1064140033BE1D80D8903036313632363336215073
:10642400295C22502A5823502B5824502C58D8A089
:1064340009D0338C2150295E22502A5A23502B5ADA
:1064440024502C5A352A190E3564D5D729502A10D0
:106454002B102C10D8B411D030800FD0D8901D360A
:106464001E361F36203633BE1D80D8903036313666
:10647400323633362E06D8A02F061FAEEFD7000EC5
:10648400356E33AE17D0FF0E3014256EFF0E311467
:10649400266EFF0E3214276E7F0E3314286E25509D
:1064A400261027102810D8B403D0010E356E02D060
:1064B4001DB0FBD73550D8B41FD0010E1D26000ED9
:1064C4001E221F22202220A017D01DC025F01EC08E
:1064D40026F01FC027F020C028F0283428322732A5
:1064E4002632253225C01DF026C01EF027C01FF01D
:1064F40028C020F02E4A2F2A2FBE10D02F5003E19F
:106504002E28D8A00BD0000E2F6E2E68000E1D6E04
:10651400000E1E6E000E1F6E000E206E2FBE05D0E4
:106524002F5011E12E04D8B00ED0000E2F6E000EA5
:106534002E6E000E1D6E000E1E6E000E1F6E000EDF
:10654400206E000E2D6E2EC034F034A002D01F8EAB
:1065540001D01F9ED8903430206E0ED78D6F6D0EF3
:1065640000018D65A0D0000E6C6F000E6D6F000EE3
:106574006E6F3F0E6F6F640E136E8D5130EC58F0DA
:106584003E6E3F6AD8903E363F36D8903E363F3610
:10659400480E3E26000E3F22AD0E3E24F66E200E1F
:1065A4003F20F76E0900F5CF68F00900F5CF69F0D8
:1065B4000900F5CF6AF00A00F5CF6BF0A3EC24F0E4
:1065C40068C089F069C08AF06AC08BF06BC08CF037
:1065D4000A0E136E640E0F6E8D51D4EC5AF030EC2B
:1065E40058F03E6E3F6AD8903E363F36D8903E36DD
:1065F4003F36240E3E26000E3F22AD0E3E24F66E9C
:10660400200E3F20F76E0900F5CF6CF00900F5CF9E
:106614006DF00900F5CF6EF00A00F5CF6FF089C078
:1066240068F08AC069F08BC06AF08CC06BF0A3EC90
:1066340024F068C085F069C086F06AC087F06BC03A
:1066440088F085C068F086C069F087C06AF088C0A9
:106654006BF00A0E0F6E8D51D4EC5AF03E6E3F6A09
:10666400D8903E363F36D8903E363F36AD0E3E2467
:10667400F66E200E3F20F76E0900F5CF6CF009008E
:10668400F5CF6DF00900F5CF6EF00A00F5CF6FF08D
:10669400A3EC24F068C081F069C082F06AC083F082
:1066A4006BC084F012000A0E8D6567D0000E6C6F0B
:1066B400000E6D6F000E6E6F3F0E6F6F0A0E136E3D
:1066C4008D5130EC58F03E6E3F6AD8903E363F36DE
:1066D400D8903E363F36240E3E26000E3F22AD0EA5
:1066E4003E24F66E200E3F20F76E0900F5CF68F0C9
:1066F4000900F5CF69F00900F5CF6AF00A00F5CF7B
:106704006BF0A3EC24F068C089F069C08AF06AC019
:106714008BF06BC08CF089C068F08AC069F08BC0C4
:106724006AF08CC06BF00A0E0F6E8D51D4EC5AF0E7
:106734003E6E3F6AD8903E363F36D8903E363F365E
:10674400AD0E3E24F66E200E3F20F76E0900F5CF05
:106754006CF00900F5CF6DF00900F5CF6EF00A007A
:10676400F5CF6FF0A3EC24F068C081F069C082F02B
:106774006AC083F06BC084F012008D51040DAD0E1D
:10678400F324F66E200EF420F76E0900F5CF68F0BE
:106794000900F5CF69F00900F5CF6AF00A00F5CFDA
:1067A4006BF0000E6C6F000E6D6F000E6E6F3F0E7F
:1067B4006F6FA3EC24F068C081F069C082F06AC0F6
:1067C40083F06BC084F0120004013205D8A40FD00A
:1067D40030511F0B0009D8A40AD0448E030E31197E
:1067E400D8A402D0010E01D0000E0001F26F040102
:1067F4003251D8A4120030511F0B020AD8A412003F
:1068040034510F0B0009D8B4120034510F0B236E0E
:10681400030E23601200200E4E18D8A41200448EDA
:1068240034BF18D034510F0B236E2350020D300E99
:10683400F324D96E010EF420DA6EDECF28F0DDCF1A
:1068440029F034510F0B236E246A480E2324D96E89
:10685400010E13D034510F0B020DF350D60FD96E25
:10686400DA6ADECF28F0DDCF29F034510F0B236E26
:10687400246A4B0E2324D96E010E2420DA6EDF50D5
:10688400276E27B006D0FB0E2814286EFF0E29149D
:1068940004D0040E2810286E2950296E34BF0CD061
:1068A40034510F0B236E2350020D300EF324D96E96
:1068B400010EF420DA6E07D034510F0B020DF350A1
:1068C400D60FD96EDA6A28C0DEFF29C0DDFF030EB9
:1068D4003119D8A42AD028C0D9FF29C0DAFFDFAEE5
:1068E40017D034BF09D034510F0B236E246A480EDD
:1068F4002324D96E010E08D034510F0B236E246A61
:106904004B0E2324D96E010E2420DA6E0101DF829E
:1069140028C0D9FF29C0DAFF000EDB8428C0D9FFC4
:1069240029C0DAFF000EDB8E1200040E2818286E30
:106934002950296E28C0D9FF29C0DAFFDFAE1BD049
:1069440028C0D9FF29C0DAFF7F0EDF1628C0D9FF7F
:1069540029C0DAFF000EDB8C000E1C6E050E1B6EC8
:1069640028C01DF029C01EF0000E206E020E1F6EFE
:1069740024EC51F006D028C0D9FF29C0DAFF000E5C
:10698400DB8C040E2818286E2950296E27B206D0F5
:1069940028C0D9FF29C0DAFFDFAE2DD0040134BFEF
:1069A40009D034510F0B236E246A480E2324D96E68
:1069B400010E08D034510F0B236E246A4B0E23248E
:1069C400D96E010E2420DA6E0101DF9228C0D9FFAE
:1069D40029C0DAFF3B0EDF16000E1C6E050E1B6E7F
:1069E40028C01DF029C01EF0000E206E020E1F6E7E
:1069F40024EC51F006D028C0D9FF29C0DAFF3B0EA1
:106A0400DF16040134510F0B236E246A260E23244F
:106A1400256E0F0E2420266E25C0D9FF26C0DAFF6E
:106A2400FE0EDF1612001BC00FF01CC010F01DC0BC
:106A340011F01EC012F0CD0E136ECC0E146E4C0E5F
:106A4400156E3E0E166EBAEC45F0D8A01EBE01D0EF
:106A540016D01EAE1CD01BC00FF01CC010F01DC001
:106A640011F01EC012F0000E136E000E146E000E14
:106A7400156EBF0E166EBAEC45F0D8A008D0000E05
:106A84001F6E000E206E000E216E000E2ED01BC055
:106A94000FF01CC010F01DC011F01EC012F0000E4B
:106AA400136E000E146E000E156EBF0E166EBAEC49
:106AB40045F0D8B01CD01BC00FF01CC010F01DC096
:106AC40011F01EC012F0000E136E000E146E800E34
:106AD400156EBF0E166EBAEC45F0D8A008D00A0E9B
:106AE4001F6ED70E206EA30E2FD0226EB0D01BC007
:106AF4000FF01CC010F01DC011F01EC012F0000EEB
:106B0400136E000E146E800E156EBF0E166EBAEC68
:106B140045F0D8B01CD01BC00FF01CC010F01DC035
:106B240011F01EC012F0000E136E000E146EA00EB3
:106B3400156EC00E166EBAEC45F0D8A008D08F0EB4
:106B44001F6EC20E206EF50E216E3C0ECED71BC0FA
:106B54000FF01CC010F01DC011F01EC012F0000E8A
:106B6400136E000E146EA00E156EC00E166EBAECE7
:106B740045F0D8B01AD01BC00FF01CC010F01DC0D7
:106B840011F01EC012F0000E136E000E146E200ED3
:106B9400156EC10E166EBAEC45F0D8A006D00A0EDA
:106BA4001F6ED70E206E230E47D01BC00FF01CC0E3
:106BB40010F01DC011F01EC012F0000E136E000E76
:106BC400146E200E156EC10E166EBAEC45F0D8B0D8
:106BD4001AD01BC00FF01CC010F01DC011F01EC055
:106BE40012F0000E136E000E146EF00E156EC10E30
:106BF400166EBAEC45F0D8A006D0CD0E1F6ECC0EA2
:106C0400206E4C0E19D01BC00FF01CC010F01DC01C
:106C140011F01EC012F0000E136E000E146EF00E72
:106C2400156EC10E166EBAEC45F0D8B008D08F0EB2
:106C34001F6EC20E206E750E216E3D0E56D71BC000
:106C44001FF01CC020F01DC021F01EC022F01FC088
:106C54001BF020C01CF021C01DF022C01EF0120049
:106C6400136E13503E0D370EF324D96E020EF4202A
:106C7400DA6E010EDF6E13503E0D380EF324D96E1A
:106C8400020EF420DA6E000EDF6E13503E0D390E44
:106C9400F324D96E020EF420DA6E020EDF6E135066
:106CA4003E0D3A0EF324D96E020EF420DA6E000E75
:106CB400DF6E13503E0D3B0EF324D96E020EF4200A
:106CC400DA6E030EDF6E13503E0D3C0EF324D96EC4
:106CD400020EF420DA6E010EDF6E13503E0D3D0EEF
:106CE400F324D96E020EF420DA6E010EDF6E135017
:106CF4003E0D3E0EF324D96E020EF420DA6E020E1F
:106D0400DF6E13503E0D3F0EF324D96E020EF420B5
:106D1400DA6E000EDF6E13503E0D400EF324D96E72
:106D2400020EF420DA6E010EDF6E13503E0D410E9A
:106D3400F324D96E020EF420DA6E000EDE6E000E1D
:106D4400DE6E000EDE6E000EDD6E13503E0D450E3F
:106D5400F324D96E020EF420DA6E000EDE6E000EFD
:106D6400DE6E000EDE6E000EDD6E13503E0D510E13
:106D7400F324D96E020EF420DA6E000EDE6E000EDD
:106D8400DE6E000EDE6E000EDD6E13503E0D6F0ED5
:106D9400F324D96E020EF420DA6E000EDE6E000EBD
:106DA400DE6E000EDE6E000EDD6E13503E0D490EDB
:106DB400F324D96E020EF420DA6E000EDE6E000E9D
:106DC400DE6E000EDE6E000EDD6E13503E0D4D0EB7
:106DD400F324D96E020EF420DA6E000EDE6E000E7D
:106DE400DE6E000EDE6E000EDD6E13503E0D550E8F
:106DF400F324D96E020EF420DA6E000EDE6E000E5D
:106E0400DE6E000EDE6E000EDD6E13503E0D590E6A
:106E1400F324D96E020EF420DA6E000EDE6E000E3C
:106E2400DE6E000EDE6E000EDD6E13503E0D5D0E46
:106E3400F324D96E020EF420DA6EDE6ADE6ADE6AAC
:106E4400DD6A13503E0D610EF324D96E020EF42058
:106E5400DA6EDE6ADE6ADE6ADD6A13503E0D650EA6
:106E6400F3240F6E020EF420106E000E126E0A0E42
:106E7400116E85EC58F012003650D96EDA6A0A0E9B
:106E8400D926010EDBBE16D0010EDB5004E1460EFE
:106E9400DE5CD8A00FD03650D96EDA6A0A0ED92635
:106EA400010EDBBE0CD0010EDB5004E18B0EDE5C68
:106EB400D8A005D06069616962696369D9D0365028
:106EC400D96EDA6A0A0ED926DECF3AF0DDCF3BF06E
:106ED4006C0E3A24266E070E3B20276E3650D96E70
:106EE400DA6A080ED926DECF3CF0DDCF3DF0010E84
:106EF4003C24286E000E3D20296E3650D96EDA6A85
:106F0400060ED926DECF2AF0DDCF2BF033EC4AF083
:106F140026C060F027C061F028C062F029C063F089
:106F2400070E276EB20E266E000E296E010E286E15
:106F3400000E2B6E010E2A6E33EC4AF0265000012F
:106F4400605F2750615B2850625B2950635B365059
:106F5400D96EDA6A040ED926DECF3AF0DDCF3BF0E3
:106F64003AC03CF03BC03DF0000E3DBEFF0E3E6E0D
:106F74003F6E60C00FF061C010F062C011F063C0DA
:106F840012F0180E136E000E146E000E156E000E25
:106F9400166E86EC54F03C500F240001606F3D5097
:106FA4001020616F3E501120626F3F501220636FBA
:106FB4003650D96EDA6A020ED926DECF3AF0DDCF2A
:106FC4003BF03AC03CF03BC03DF0000E3DBEFF0E2E
:106FD4003E6E3F6E60C00FF061C010F062C011F0F1
:106FE40063C012F03C0E136E000E146E000E156E8C
:106FF400000E166E86EC54F03C500F240001606FB6
:107004003D501020616F3E501120626F3F5012209E
:10701400636F3650D96EDA6ADECF3AF0DDCF3BF0DB
:107024003AC03CF03BC03DF0000E3DBEFF0E3E6E4C
:107034003F6E60C00FF061C010F062C011F063C019
:1070440012F03C0E136E000E146E000E156E000E40
:10705400166E86EC54F03C500F240001606F3D50D6
:107064001020616F3E501120626F3F501220636FF9
:1070740060C036F061C037F062C038F063C039F0E8
:107084001200C06F010E0001C06502D0000E120094
:10709400C051C80FD96EDA6ADF50D8B4F7D7C051DF
:1070A400CA0FD96EDA6ADF50D8B4F0D7C051CC0F0A
:1070B400D96EDA6ADF50D8B4E9D7BE0E246EC05157
:1070C40000EC5DF00009D8B4E1D7BEC081F0BFC0C8
:1070D40082F00001C0513E0D390EF324D96E020E28
:1070E400F420DA6EDF50836F3CEC50F0C051040D95
:1070F400280EF324D96E010EF420DA6E81C0DEFF6F
:1071040082C0DEFF83C0DEFF84C0DEFFC051180DE5
:10711400910EF3248D6F010EF4208E6FC051040D77
:10712400280EF324D96E010EF420DA6EDECF8FF030
:10713400DECF90F0DECF91F0DECF92F0C1EC2AF0FA
:10714400C051040D280EF324D96E010EF420DA6E1A
:107154008DC0DEFF8EC0DEFF8FC0DEFF90C0DEFF7D
:10716400000EBA6F000EBB6F000EBC6F000EBD6F39
:10717400C0513E0D400EF324D96E020EF420DA6E97
:10718400DE04D8A434D0C051040D200EF324D96EEB
:10719400010EF420DA6EDECF81F0DECF82F0DECF96
:1071A40083F0DECF84F0C0513E0D6F0EF324D96E10
:1071B400020EF420DA6EDECF85F0DECF86F0DECF6D
:1071C40087F0DECF88F0C0513E0D380EF324D96E1F
:1071D400020EF420DA6EDF50896F47EC29F081C08B
:1071E400BAF082C0BBF083C0BCF084C0BDF0BAC0AA
:1071F40095F0BBC096F0BCC097F0BDC098F0C051EC
:10720400040D280EF324D96E010EF420DA6EDECFBD
:1072140099F0DECF9AF0DECF9BF0DECF9CF0C05128
:10722400DBEC2EF00001C051040D000EF324D96EE6
:10723400010EF420DA6E95C0DEFF96C0DEFF97C023
:10724400DEFF98C0DEFF010E12004E50D8A411D00C
:10725400000E656E000E0F01366F160E396F9F0E0D
:10726400376F7B0E366F01D0658665A6FDD7010E9C
:107274004E6E4E04D8B465BA09D0000E626E000E8C
:107284000F01366F36813689020E4E6E62A406D027
:107294000F0136A503D062944DEC58F065A202D0DC
:1072A400A198120062A008D00F0136A105D066ECA7
:1072B4003EF0040E4E6E629062A804D00F0136B9FF
:1072C400B7EC59F062AC1BD00F0136AD0ED0000EF6
:1072D4001C6E730E1B6E000E1D6E000E1E6E000ED5
:1072E400206E010E1F6E24EC51F0629CA2EC5BF048
:1072F400EE51D8A4EE07EE51D8B456EC47F062AA8A
:1073040004D00F0136BBBAEC56F062A212D00F01C2
:1073140036A30FD07F0E1C6E1B68000E1D6E000E70
:107324001E6E000E206E010E1F6E24EC51F0000E36
:10733400636E040E4E6002D0A19812000F0136A7AE
:1073440035D0000E2C6E62A631D064CF50F0503090
:10735400E832E8320F0B0001F06F629650B406D0A9
:10736400480EF025D96EDA6A010E05D04B0EF025D1
:10737400D96EDA6A010EDA220101DF700001F051E0
:10738400D8A403D078EC4BF00DD0000E1C6E720E16
:107394001B6E500E1D6E1E6A000E206E000E1F6EB8
:1073A40024EC51F02C2A030E2C64CDD7A1981200A2
:1073B40089C0D9FF8AC0DAFFDF50D8A41DD020EEDF
:1073C40001F08951D9268A51DA228BC0DEFF8CC0A4
:1073D400DEFF8DC0DEFF8EC0DEFF89C0D9FF8AC00C
:1073E400DAFF010EDF6E8BC089F08CC08AF08DC08D
:1073F4008BF08EC08CF012008F059C6F0E0E9C6576
:1074040002D00E0E9C6F9C51040DA00EF324D96E75
:10741400030EF420DA6EDECF98F0DECF99F0DECFE3
:107424009AF0DECF9BF020EE01F08951D9268A51E3
:10743400DA22DECF6CF0DECF6DF0DECF6EF0DECF81
:107444006FF098C085F099C086F09AC087F09BC011
:1074540088F0000E816F000E826F800E836F3F0EE6
:10746400846FEEEC55F081C068F082C069F083C08F
:107474006AF084C06BF0A3EC24F068C090F069C09B
:1074840091F06AC092F06BC093F090C036F091C056
:1074940037F092C038F093C039F08BC06CF08CC0D8
:1074A4006DF08DC06EF08EC06FF098C068F099C01A
:1074B40069F09AC06AF09BC06BF0A3EC24F068C03A
:1074C4003AF069C03BF06AC03CF06BC03DF03AEC66
:1074D40026F036C094F037C095F038C096F039C025
:1074E40097F020EE01F08951D9268A51DA2294C00E
:1074F400DEFF95C0DEFF96C0DEFF97C0DEFF94C0BE
:1075040089F095C08AF096C08BF097C08CF0120079
:1075140017501810D8B41200430E17240F6E000E23
:107524001820106E000E126E000E116E000E146EF6
:10753400090E136E28EC5AF020EE4CF01750D926A1
:107544001850DA22000EDF6E1B0E17240F6E000E89
:107554001820106E000E126E000E116E000E146EC6
:10756400270E136E28EC5AF020EE42F01750D9265D
:107574001850DA22000EDF6E17C0D9FF18C0DAFFE8
:10758400DF50D8B4120020EE01F01750D92618505D
:10759400DA22DE50DE10D8A414D020EE07F0175003
:1075A400D9261850DA22000EDE6E000EDD6E10EEC3
:1075B40005F01750E1261850E222DECFE6FFDDCFBA
:1075C400E5FF20EE11F01750D9261850DA22DE50CC
:1075D400DE10D8B40AD020EE09F01750D92618507E
:1075E400DA22DE50DE10D8A414D020EE11F01750A9
:1075F400D9261850DA22000EDE6E000EDD6E20EE63
:1076040009F01750D9261850DA22000EDE6E000E4B
:10761400DD6E20EE13F01750D9261850DA22DE5012
:10762400DE10D8B40AD020EE0BF01750D92618502B
:10763400DA22DE50DE10D8A4120020EE13F0175028
:10764400D9261850DA22000EDE6E000EDD6E20EE12
:107654000BF01750D9261850DA22000EDE6E000EF9
:10766400DD6E1200000E246E000E236E21C029F080
:1076740022C02AF01DC02BF01EC02CF01FC02DF01C
:1076840020C02EF020AE24D02BC00FF02CC010F060
:107694002DC011F02EC012F0FF0E136EFF0E146EEB
:1076A400FF0E156EFF0E166E86EC54F00FC02BF015
:1076B40010C02CF011C02DF012C02EF029C0D9FF3B
:1076C4002AC0DAFF2D0EDF6E294A2A2A234A242AE9
:1076D4002BC025F02CC026F02DC027F02EC028F09A
:1076E40025C00FF026C010F027C011F028C012F0FA
:1076F4000A0E136E000E146E000E156E000E166E3A
:10770400F0EC46F00FC025F010C026F011C027F0B1
:1077140012C028F0294A2A2A234A242A255026104E
:1077240027102810D8A4DCD729C0D9FF2AC0DAFF33
:10773400000EDF6E2BC00FF02CC010F02DC011F026
:107744002EC012F00A0E136E000E146E000E156E8B
:10775400000E166E35EC49F00F50300F2906D8A0F4
:107764002A0629C0D9FF2AC0DAFFDF6E2BC00FF02A
:107774002CC010F02DC011F02EC012F00A0E136EA2
:10778400000E146E000E156E000E166EF0EC46F030
:107794000FC02BF010C02CF011C02DF012C02EF031
:1077A4002B502C102D102E10D8A4C4D723C01DF09C
:1077B40024C01EF01200000E0001796F000E786FD5
:1077C400600E0F6E78C010F079C011F0030E136EC6
:1077D400C40E126E95EC5AF00FC078F010C079F018
:1077E400600E196E78C01AF079C01BF0D20E72ECDC
:1077F40059F019C07AF01AC07BF000017A517B115C
:10780400D8B405D07AC02BF07BC02CF01200020E45
:10781400346E380E336EAD0EE82EFED7332EFCD701
:10782400342EFAD700F0600E1D6E000E1F6E100E7F
:107834001E6ED20E9FEC41F01DC07AF01EC07BF08C
:1078440000017A517B11D8A4DDD7600E0F6E6FEC66
:107854005BF02B50D96EDA6A0FC0DEFF10C0DDFF7B
:10786400620E0F6E6FEC5BF02C50D96EDA6A0FC0AB
:10787400DEFF10C0DDFF640E0F6E6FEC5BF02D5069
:10788400D96EDA6A0FC0DEFF10C0DDFF660E0F6E20
:107894006FEC5BF02E50D96EDA6A0FC0DEFF10C0B9
:1078A400DDFF680E146EDEEC5CF02F50D96EDA6AE0
:1078B40014C0DEFF15C0DDFF6A0E146EDEEC5CF052
:1078C4003050D96EDA6A14C0DEFF15C0DDFF6C0ECD
:1078D400146EDEEC5CF03150D96EDA6A14C0DEFF4F
:1078E40015C0DDFF6E0E146EDEEC5CF03250D96E06
:1078F400DA6A14C0DEFF15C0DDFF000E2C6E000E28
:107904002B6E12008ED072EC52F0000E0001F76F55
:10791400010E01014E6F1200400E0F6E040E106E28
:10792400390E116E4EEC4FF00009D8B41200000E5F
:107934000001F76F39500201B319D8A41200000EE8
:10794400FF6FF60EFF25D96EDA6A020EDA2239C00D
:10795400DFFFFF2B020E01014E6F1200400E0F6E6F
:10796400040E106E390E116E4EEC4FF00009D8B4AF
:107974003CD0000E0001F76FF60E0201FF25D96E10
:10798400DA6A020EDA2239C0DFFFFF2B070EFF6529
:1079940012000FD0040E01014E6F030E0001F96FA7
:1079A4001200060E01014E6F1200070E01014E6F08
:1079B4001200B30E336E020E346E25EC2CF0000A66
:1079C400D8B4E8D7010AD8B4ECD7030AD8B4EDD7B1
:1079D400010AD8B4EAD7070AD8B4E7D7010AD8B459
:1079E400E0D7030AD8A41200DCD70001F751010143
:1079F4004F5DD8B01200030E4E6F1200CE0E146EFF
:107A0400020E156EF5C216F03CEC57F0CED7020EFE
:107A14000001F96FB30E176E020E186EBFEC5AF028
:107A240074D701014E51000AD8B46DD7010AD8B4F5
:107A340073D7030AD8B492D7010AD8B4B6D7070AC1
:107A4400D8B4DCD7020AD8B4B0D7010AD8A412003B
:107A5400DED7176E1750D8A412AE1AD00FC013F089
:107A640010C014F011C015F012C016F0131E141E2D
:107A7400151E161E132A000E14221522162213C0D8
:107A840019F014C01AF015C01BF016C01CF008D071
:107A94000FC019F010C01AF011C01BF012C01CF076
:107AA4000F50101011101210D8A409D0000E0F6E30
:107AB400000E106E000E116E000E126E1200960E65
:107AC400186E06D0182AD8901C321B321A3219327A
:107AD400000E1914136E000E1A14146E000E1B14EB
