:10000000CFEF0CF00400120004EF10F05CEC0DF0E8
:10001000FF0000F000F012000CEF10F018EF00F0FD
:10003000000EF26E000EFC6E13EC0DF004005CEC92
:1000400008F0ABEC0DF018EC0CF028EC00F0F6D753
:10005000060E4118D8A4120065B212003F50D8A471
:1000600050D104010CBF1200A10E466E400E476E27
:100070002CEC0BF0010E3F6E000E2E6E000E2D6E5E
:100080002D50600FD96EDA6A000EDF6E2D4A2E2ACF
:100090002E5005E1400E2D5CD8B01200F1D71200B1
:1000A000020E606F3A0E616F010E626F010E636F98
:1000B000000E646F200E656F000E666F000E676F96
:1000C0002050516E2150526E2250536E546A000ED1
:1000D0005124686FE00E5220696FFF0E53206A6F43
:1000E000FF0E54206B6F030E6C6FF80E6D6FFF0EDA
:1000F0006E6F000E6F6F000E706F080E716F000E46
:10010000726F000E736F000E746F7569A50E996F94
:10011000040110BF1200600E466E400E476E92EC56
:100120000BF0000E3F6E1200A251D8A406D03F0E75
:10013000406EF80E206EFF0E05D03E0E406E000E93
:10014000206EFC0E216E000E226EEBD7000E2E6E7E
:10015000080E2D6E0CD002EC00F02DC047F02EC022
:1001600048F0EDEC0BF05CEC08F02D4A2E2A4050E4
:10017000516E526A010E5126000E522251502D5CD2
:1001800052502E58D8B0CDD7E6D71D280BE11E28E7
:1001900009E11F28D8A406D0A2C01DF0A3C01EF0FC
:1001A000A4C01FF01D50A219BCE11E50A319B9E153
:1001B0001F50A419D8A4B5D7000E2E6E000E2D6EB8
:1001C0001BD0A651E1082D24D96EDA6AAC0E3E246C
:1001D000E16EE26A040EE222DFCFE7FF3E2A010E63
:1001E0001D26000E1E22000E1F223A0E3E18D8B405
:1001F000F1EC0AF02D4A2E2A0001A651516E526AE6
:1002000051502D5C52502E58D8B08BD7DAD7F1EC24
:100210000AF0FF0E1D6EFF0E1E6EFF0E1F6E81D7C1
:10022000070E606FA2C061F0A3C062F0A4C063F0CB
:10023000A5C064F0A6C065F0A4C0F8FFA3C0F7FF96
:10024000A2C0F6FF000E2E6E000E2D6E0BD0090020
:100250000001A651A0082D24D96EDA6AF5CFDFFF80
:100260002D4A2E2AA651516E526A51502D5C525081
:100270002E58D8A0ECD74CD728EC09F052D70C0E4A
:10028000606F010E626F020E616F160EF66E200E29
:10029000F76E000EF86E0900F5CF63F00A00F5CF97
:1002A00064F0060E656F200E666F000E676F000E1D
:1002B000686F600E6A6F0D0E696F000E6B6F040E33
:1002C0006C6F000E6D6F000E6E6F6F6970697169F3
:1002D00072697369746975697669000E776F000ECB
:1002E000786F000E796F000E7A6F000E7B6F000E34
:1002F0007C6F000E7D6F000E7E6F0AD706EC00F05B
:1003000010D70001A151020AD8B4CAD6010AD8B444
:100310000BD7070AD8B41AD7010AD8B436D7030ABC
:10032000D8B475D7010AD8B47BD70F0AD8B4E6D7AA
:0E033000010AD8B4A1D7050AD8B4A1D7F2D6D5
:100A00001201000200000008D8043C0001010102AC
:020A10000001E3
:100A200009022900010100803209040000020300CC
:100A30000000092111010001221D0007058103406A
:090A40000001070501034000015B
:100A4C00040309042203440065006B006900730071
:100A5C007400200043006F002E002C0020004C007E
:100A6C00740064002E00320348004900440020004A
:100A7C005200610064006F006E006F00640065003E
:100A8C00200062006F006F00740020006C006F008B
:100A9C0061006400650072000600FF0901A10119E4
:100AAC00012940150026FF007508954081001901A9
:050ABC0029409100C07B
:090AC2004C0A00500A00720A00FF
:100F0000000001501F0BE806D8A412000550D8A419
:100F10001200060E0218D8B420D028D0020E396E66
:100F2000320E146E0A0E156E000E166E000E2A6E2C
:100F3000090E11D0020E396E4504D8A406D0A40EB5
:100F4000146E0A0E156E000E166E4504D8A40DD050
:100F5000000E2A6E1D0E296E08D00450210AD8B446
:100F6000DDD7030AD8B4E6D7010A36820138E83261
:100F7000030BE806D8A4120021D0AAEC0DF0120051
:100F8000A9EC0DF01200020E396E430E146E156AB4
:100F90001450D8A4200E166E3692010E296E12003F
:100FA000020E396E04C043F01200020E396E420E7A
:100FB000EDD7020E396E03C042F012000250010A52
:100FC000D8B4DBD7030AD8B4DED7010AD8B4EDD73A
:100FD0000A0AD8B4D5D7030AD8B4E2D7010AD8A4EC
:100FE0001200E7D70304D8A40ED001501F0B00094C
:100FF000D8A409D0010E396E030E0218D8A402D06D
:10100000368001D036900350D8A4120001501F0B37
:10101000020AD8A4120005500F0B0009D8B4120020
:10102000010E396E05AE03D0466A462A01D0466AE3
:101030004650040DF3CF47F0F4CF48F005500F0BA6
:10104000496E4950080D000E4A6E040E4B6E040E98
:101050004A26000E4B22F3504A26F4504B224750AA
:101060004A24116E48504B20126E030E0218D8A469
:101070000DD011C0D9FF12C0DAFF040EDF6E11C00F
:10108000D9FF12C0DAFF000EDB8E120005AE07D0CA
:1010900011C0D9FF12C0DAFF400EDF6E120011C07E
:1010A000D9FF12C0DAFF080EDF6E11C0D9FF12C0DF
:1010B000DAFF000EDB8E120097EC0DF04150D8B431
:1010C000120062B472EC0DF065B2120062B05FEC17
:1010D0000BF062B84CEC0DF0030E416001D0120031
:1010E000000E3B6E62A6120064CF35F064CF4DF067
:1010F0007C0E4D16D8A439D064B202D0000E01D0B7
:10110000040E256E040E266E629625C0D9FF26C0F9
:10111000DAFFDF30E8320F0B0D0AD8A42FD0000E13
:10112000336E20EE02F02550D9262650DA22DECF8B
:101130004DF0DDCF4EF04DC0D9FF4EC0DAFF335039
:10114000010FE16EE26ADFCFE7FF20EE02F02550EB
:10115000D9262650DA22DE2A000EDD22332A070E97
:101160003364DFD7AEEC0CF009D0040E6418D8A4B9
:1011700004D0629668EC0CF001D062963B2A030E14
:101180003B64B0D71200080E316E2A5010E1080EF1
:10119000295CD8B00CD029C031F03850D8A402D086
:1011A000010E04D03804D8A402D0020E386E31C02B
:1011B00009F43150295E000E2A5A240E116E040ED5
:1011C000126E36B21FD040D014C0F6FF15C0F7FF24
:1011D00016C0F8FF11C0D9FF12C0DAFFF8BA03D069
:1011E0000800F55005D0F6CFE1FFF7CFE2FFE7505A
:1011F000DF6E114A122A010E1426000E1522000E6F
:10120000162231063150D8B41200DED714C0F6FFD2
:1012100015C0F7FF16C0F8FF11C0D9FF12C0DAFFE2
:10122000F8BA03D00800F55005D0F6CFE1FFF7CFAC
:10123000E2FFE750DF6E114A122A010E1426000E5B
:101240001522000E162231063150D8B41200DED716
:10125000000E4E6E200E4F6E000E506E000E2C6E65
:10126000000E2B6E4EC0F6FF4FC0F7FF50C0F8FFC8
:10127000AC0E2B24D96E040E2C20DA6E0800F5CFAC
:10128000DFFF010E4E26000E4F22000E50222B4A89
:101290002C2A040E2C5CD8A0E5D70D0EE8CFB2F4B2
:1012A000600EE8CFB3F4000E486E080E476EEDEC0A
:1012B0000BF0FF0E4E6E230E4F6E000E506E030E9F
:1012C0002C6E2B6850C0F8FF4FC0F7FF4EC0F6FFE2
:1012D000AC0E2B24D96E040E2C20DA6EDF50F56E86
:1012E0000C002BC04DF03F0E4D16D8A407D002ECD9
:1012F00000F0040EA66EB50EFEEC0CF0010E4E5E74
:10130000000E4F5A000E505A0A002B502C10D8B421
:1013100012002B06D8A02C06D5D73950D8A415D04A
:10132000040E0401086F088F040E096E3704D8A458
:1013300006D0010E42EC0CF0000E376E1200000ECB
:1013400042EC0CF0010E376E120001AE1FD0010E00
:101350003A6E2950075C2A500858D8B004D007C00C
:1013600029F008C02AF0C3EC08F0480E096E010EFF
:1013700042EC0CF0000E42EC0CF0240E04010A6F5B
:10138000040E0B6F480E086F088F1200020E3A6EA3
:10139000040E096E07500810D8A402D0480E096E3A
:1013A0003704D8A405D0010E42EC0CF0000E04D096
:1013B000000E42EC0CF0010E376E07500810D8A456
:1013C0001200000E0401096F480E086F088F12000A
:1013D000800E0118D8A4120049D0010E396E000EFB
:1013E000146E0A0E156E000E166E120E0ED00350FD
:1013F000D8A446D0010E396E200E146E0A0E156E5A
:10140000000E166E000E2A6E290E296E39D0010EBE
:10141000396E0350030DF3CF46F0F4CF47F0C20E00
:101420004624F66E0A0E4720F76EF86A000EF82280
:101430000900F5CF14F00900F5CF15F00A00F5CF3B
:1014400016F014C0F6FF15C0F7FF16C0F8FFF8BA83
:1014500003D00800F55005D0F6CFE1FFF7CFE2FF4B
:10146000E750466E4650296E2A6A0AD00450010A97
:10147000D8B4B3D7030AD8B4BAD7010AD8B4C7D7F7
:1014800036821200000E246F000E256F38D0010E38
:10149000396E36A03FD024833DD0010E396E3AD04C
:1014A000010E396E05AE03D0466A462A01D0466A5F
:1014B0004650040DF3CF47F0F4CF48F005500F0B22
:1014C000496E4950080D000E4A6E040E4B6E040E14
:1014D0004A26000E4B22F3504A26F4504B22475026
:1014E0004A24116E48504B20126E11C0D9FF12C011
:1014F000DAFFDFA40FD0010E0401246F0BD00150DE
:101500001F0B000AD8B4C3D7010AD8B4C6D7030A40
:10151000D8B4C6D73904D8A41200240E146E040E11
:10152000156E14501510D8A4200E166E3692020EA9
:10153000296E12000138E832030B0009D8A412000A
:101540002FD0010E396E040E416E1200E8EC09F046
:101550001200C2EC0BF01200010E396E450E146E33
:10156000156A1450D8A4200E166E3692010E296EFC
:10157000120042EC0AF01200F2EC07F01200010E29
:10158000396E0550440F4C6E4CC014F0E9D7010E73
:10159000396E0550440FD96EDA6A03C0DFFF1200BE
:1015A0000250000AD8B4E5D7010AD8B4E5D7020A38
:1015B000D8B4E2D7060AD8B4C4D7030AD8B4C6D779
:1015C000010AD8B412000F0AD8B4C6D7010AD8B499
:1015D000C0D7030AD8B4D3D7010AD8B4D8D7070ADA
:1015E0001200000E3D6E32D03E50476E000E47BED8
:1015F000FF0E486E496E47501D5C1A6E48501E58CB
:101600001B6E49501F581C6E1CC0F8FF1BC0F7FF13
:101610001AC0F6FFAC0E3D24D96EDA6A040EDA2247
:10162000DF50F56E0D003D2AAC0E3D24D96EDA6A0E
:10163000040EDA22DF50F56E0C003D2A240EA66E51
:10164000B50EFEEC0CF03E50FE0F3E6E3E50800A92
:101650007F0FD8A01200C8D7000E2F6E0CBF12004B
:1016600047500D5DD8A00DC447F0000E2F6E0DD071
:101670002C0E2F24D96EDA6A040EDA2246502F245B
:10168000E16EE26ADFCFE7FF2F2A47502F5CD8A038
:10169000EFD7400E0D6F400E0C170CBD03D0486AFB
:1016A000482A01D0486A483A4846484604010C5145
:1016B0004818BF0B48180C6F0C870C8F1200030ED4
:1016C000416E000E0F01376F000E626E7B0E366F9B
:1016D000000E386F000E276F000E286F000E296F66
:1016E000000E2A6F000E2B6F000E2C6F000E2D6F58
:1016F000160E266F658C03D0629602EC00F062B67F
:10170000FBD7659C6598040E096E000E42EC0CF048
:10171000010E376E000E366E000E456E000E86EC22
:101720000DF01200400E476402D0400E476E000ECE
:10173000496E0DD046504924D96EDA6A6C0E4924A0
:10174000E16EE26A040EE222DFCFE7FF492A47504A
:10175000495CD8A0EFD747C011F4400E0401101720
:1017600010BD03D0486A482A01D0486A483A484622
:101770004846040110514818BF0B4818106F1087D5
:10178000108F1200010E396E000E0F01276F000E30
:10179000286F000E296F000E2A6F000E2B6F000EAF
:1017A0002C6F000E2D6F000E306E3050440FD96E2E
:1017B000DA6A000EDF6E302A3050D8B4F6D703C094
:1017C00045F0455086EC0DF00350D8A403D0050E2B
:1017D000416E1200060E416E1200485008E1080EDC
:1017E000475CD8B004D0000E486E080E476E0A0E53
:1017F000496E47C04AF048C04BF04C6A492804D0B3
:10180000D8904A364B364C36E82EFAD74AC017F0F5
:101810004BC018F04CC019F019C0F8FF18C0F7FF02
:10182000000EF66E140EA66EB50EFEEC0CF0120055
:10183000C0BC1200030ED36E65926596000EF26E68
:10184000000E0D6E040E0E6E000E0F6E000E106E6A
:1018500011D0C0AC06D00D06000E0E5A0F5A105A09
:1018600008D0000E0D6E040E0E6E000E0F6E000EF0
:10187000106E04000D500E100F101010D8A4E9D7F0
:10188000FF001200466E080E0A6E1C0E0B6E040E50
:101890000C6E4650D8A406D0140E0B6E040E0C6EBF
:1018A000000E01D0040E236E040E246E23C0D9FF57
:1018B00024C0DAFF09C0DEFF0AC0DEFF0BC0DEFF76
:1018C0000CC0DEFF23C0D9FF24C0DAFFDF8E120078
:1018D000040E4118D8A40AD003C038FF0F013851B4
:1018E000D8B402D0050E01D0030E416E3A04D8A43C
:1018F0001200C3EC08F0020E3818D8A405D0040E6C
:101900000401086F088F1200040108BD02D0480EC0
:1019100001D0080E086F088F1200060EF66E200E1A
:10192000F76E000EF86E09000D0EF51813E10900B0
:10193000600EF518D8A40ED0000EF66E200EF76ECD
:10194000000EF86E0900F52803E10900F528D8A477
:1019500000EF10F018EC00F000EF00F0000E0401B2
:10196000086F000E386E00AF04D0000E006F000E3E
:10197000376E04AF04D0000E046F010E376E000EF8
:101980003A6E000E396E000E2A6E000E296E6598B2
:101990009AEC0AF0A6EC0DF08DEC09F0120004EEC2
:1019A000ACF014EE00F0EE6AE550E150FCE1E250DC
:1019B000FAE100EE60F0820EEE6AE806FDE100EE6C
:1019C00001F0450EEE6AE806FDE100018DEF0CF036
:1019D000000E2F6E1E0E0F01276F400E04010D6FBB
:1019E0002C0E0E6F040E0F6F080E0C6F0C8F6C0E0A
:1019F000126F040E136F400E106F1200466EF29EAF
:101A000018EC0CF0B50E4618D8B404D0030ED36E03
:101A10000300FED7550EA76EAA0EA76EA682A6B229
:101A2000FED7A6941200600ED36E9B8C030E476EF9
:101A3000000E466E67EC0DF0000E0F01486F000EB1
:101A4000496F39EC0DF08FEC0DF012003404D8B46E
:101A50005CEC0DF0000E656E150E0F01396F000E77
:101A6000366F65865FEC0BF0010E416E000E346E32
:101A700012003E0E406E000E206EFC0E216E000E17
:101A8000226E000E3F6EFF0E1D6EFF0E1E6EFF0ECD
:101A90001F6E000E3E6E120036CF32F0040E0F01A4
:101AA000366F62986582A198A0887CEC0DF0A098B2
:101AB00032500F01361312006592000E656EFF0E54
:101AC000476E466867EC0DF0000E416E120005D0BF
:101AD00002EC00F04606D8A0470646504710D8B49E
:101AE0001200F6D79FEC0DF065920F01369501D0EC
:101AF000629462A41200FCD7D3CF3CF00300A1B8DB
:101B000002D0D0A6FBD73CC0D3FF1200466E4604DD
:101B1000D8A41200E8EC0CF039EC0DF0120065B618
:101B20005CEC0DF0000E346E97EC0DF012003404F6
:101B3000D8B4120065B6120026EC0DF01200030EA8
:101B4000476E000E466E67EC0DF0120081EC07F058
:081B5000120012001200120045
:08FFF800ACF752FA53F981F154
:00000001FF
